:020000040002F8
:10600000704C0020C1630200C9630200CB63020030
:10601000CD630200CF630200D163020000000000E4
:10602000000000000000000000000000D363020038
:10603000D563020000000000D7630200D9630200AC
:1060400085650200DB630200C9680200DB630200B1
:10605000DB630200DB630200E1640200DB63020039
:10606000DB630200DB630200DB630200DB63020030
:10607000DB630200DB630200DB630200DB63020020
:10608000DB630200DD650200DB630200DB6302000C
:10609000DB630200DB630200ED650200DB630200EC
:1060A000DB630200DB630200DB630200DB630200F0
:1060B000DB630200DB630200000000000000000060
:1060C000DB630200DB630200DB630200DB630200D0
:1060D000DB630200DB630200DB6302000000000000
:1060E00000000000000000000000000000000000B0
:1060F00000000000000000000000000000000000A0
:10610000000000000000000000000000000000008F
:10611000000000000000000000000000000000007F
:10612000000000000000000000000000000000006F
:10613000000000000000000000000000000000005F
:10614000000000000000000000000000000000004F
:10615000000000000000000000000000000000003F
:10616000000000000000000000000000000000002F
:10617000000000000000000000000000000000001F
:10618000000000000000000000000000000000000F
:1061900000000000000000000000000000000000FF
:1061A00000000000000000000000000000000000EF
:1061B00000000000000000000000000000000000DF
:1061C00000000000000000000000000000000000CF
:1061D00000000000000000000000000000000000BF
:1061E00000000000000000000000000000000000AF
:1061F000000000000000000000000000000000009F
:10620000DFF80CD000F02EF900480047F5810200BD
:10621000704C002030B450E8012F93B2C48923445D
:106220008489A34228BF1B1B0489A34202BFBFF37A
:106230002F8F002007E0C3EA020340E80134002C5E
:10624000E9D14FF001000A6030BC704750E8012FDF
:10625000C2EA024240E801210029F7D1704730B478
:1062600050E8022F1FFAA2F3C488A34202BFBFF373
:106270002F8F00200DE0C48923448489A34228BFC6
:106280001B1BC2EA034340E80234002CE8D14FF064
:1062900001000A6030BC704750E8022FC2EA224277
:1062A00040E802210029F7D17047034653E8022F46
:1062B000D988B2EB324F4FF0000017BF92B241EADB
:1062C000014142EA014104E05A68B2EB324F08BF93
:1062D000012043E80212002AE8D1704730B4044696
:1062E00054E8000F0D4644E80053002BF8D1156028
:1062F00030BC704730B4044654E8000F40EA010552
:1063000044E80053002BF7D1156030BC704730B41F
:10631000044654E8000F00EA010544E80053002B4E
:10632000F7D1156030BC704730B4044654E8000F14
:1063300080EA010544E80053002BF7D1156030BC1A
:10634000704730B4044654E8000F00EB010544E800
:106350000053002BF7D1156030BC704730B40446B1
:1063600054E8000FA0EB010544E80053002BF7D1DF
:10637000156030BC704770B404464FF0000054E81C
:10638000006F0D68AE4207BF44E80023012044E8D7
:1063900000630E60002B1CBF0020F0E770BC70474C
:1063A00030B4044654E8000F88422CBF451A054615
:1063B00044E80053002BF5D1156030BC7047000055
:1063C0000648804706480047FEE7FEE7FEE7FEE78F
:1063D000FEE7FEE7FEE7FEE7FEE7FEE7F165020007
:1063E00001620200202A04DB203A00FA02F10020B8
:1063F00070479140C2F1200320FA03F31943904003
:10640000704700000048704798B4020040EA01035A
:106410009B0703D009E008C9121F08C0042AFAD25A
:1064200003E011F8013B00F8013B521EF9D270471E
:10643000D2B201E000F8012B491EFBD270470022C6
:10644000F6E710B513460A4604461946FFF7F0FF73
:10645000204610BD421C10F8011B0029FBD1801AF8
:1064600070470000064C074D06E0E06840F001036D
:1064700094E8070098471034AC42F6D3FFF7C4FE07
:10648000C0BB0200E0BB020070B58C1810F8015BC5
:1064900015F0070301D110F8013B2A1106D110F8BD
:1064A000012B03E010F8016B01F8016B5B1EF9D1C1
:1064B0002B0705D40023521E0DD401F8013BFAE747
:1064C00010F8013BCB1A921C03E013F8015B01F8B2
:1064D000015B521EF9D5A142D8D3002070BD000047
:1064E0002DE9F8430025DFF894804FF480760124ED
:1064F0002F460095304602F087FC38B1D8F80403E7
:10650000204203D0304602F075FC2543361D64005E
:106510007F1CB6B2082FEDD34FF4BE74204602F0B4
:1065200073FC48B1204602F065FC45F000456A4620
:106530000121002002F02EFC15F0FF0F16D00126DD
:1065400000242E420ED008EB8401D1F81005D1F8BA
:106550001015C0F304200A4AC1F3014152F8242067
:1065600002B190477600641C082CEAD3002D02DAB1
:10657000684603F04BFFBDE8F88300000060004070
:106580007825002070B54FF48076304602F0ECF9A3
:10659000114CB50560B1304602F0EDF90120C5F8A7
:1065A0000803607920B901206071216800208847C4
:1065B0004FF48276304602F0D7F900280AD03046F0
:1065C00002F0D9F90220C5F808032168BDE870403F
:1065D0000120084770BD0000202300200249024826
:1065E000091F0968006808479023002003F05AB982
:1065F000F0B5A449A4484FF080540B68D4F830217A
:106600000078D4F83411551CC0F3031006D094461A
:1066100001270026BCF1060F03D00AE003F0FF0CAF
:10662000F6E7B4F82453DFF864C2C5F30425CCF8C8
:106630000050DDB2062D06D1032804D1DFF854C284
:10664000934DCCF87450551C04D09446BCF1060F01
:1066500003D00AE003F0FF0CF8E7D4F84452DFF867
:1066600038C2C5F34235CCF80050DDB2062D08D152
:10667000032806D1894DD5F800C02CF0807CC5F8E0
:1066800000C0551C04D09446BCF1060F03D00BE0AB
:1066900003F0FF0CF8E74FF08045C5F80C61C5F832
:1066A00010617D4D2D1F2E60DDB2062D08D103280F
:1066B00006D1DFF8E4C103250CF1640CCCF80050DE
:1066C000DDB2062D10D103280ED1DFF8D4C1052587
:1066D000CCF80050724D78352F60714D08352E6022
:1066E0000CF104063F253560551C04D016460D46B6
:1066F000062E03D05BE0DEB20546F9E7ED1E012D64
:1067000055D9684D2D68684E3560664D2D1D2D6834
:10671000361D3560634D08352D68361D3560614D79
:106720000C352D68361D35605E4D10352D68361DD3
:1067300035605C4D14352D68361D3560594D183562
:106740002D68594E20363560564D1C352D68361D46
:106750003560544D20352D68361D3560514D24353A
:106760002D68361D35604F4D28352D68361D356036
:106770004C4D2C352D68361D35604A4D30352D6811
:10678000494E40363560474D34352D68361D3560ED
:10679000444D38352D68361D3560424D3C352D68E9
:1067A000361D35603F4D40352D68361D3560551C12
:1067B00003D01646062E02D007E0DEB2FAE7D4F880
:1067C00058523A4E05F04F053560551C03D013461C
:1067D000062B02D008E0DBB2FAE735480368DB0796
:1067E00002D06FF001030360062A07D1C91E0229F7
:1067F00004D93048016841F4806101602748743849
:10680000016841F470010160BFF34F8FBFF36F8FD8
:10681000D4E94C104FF01022062907D1C01E0328DE
:1068200004D9D2F808021C491C310860D2F80002D1
:10683000002803DBD2F8040200281FDA012003F04D
:10684000FBFC1521C2F800121B480368002BFCD08A
:10685000C2F8041201680029FCD0002003F0ECFC0F
:10686000BFF34F8F0D48F0380168144A01F4E0611E
:1068700011430160BFF34F8F00BFFDE7114910487E
:106880000860F0BDE00F00F0E80F00F04035014077
:106890000DF0ADBA00C007403C050040FCED00E043
:1068A000105600400404001020C50040E40E0040D3
:1068B000000400403C17004000E401400400FA05D9
:1068C0000090D00318240020014800680047000011
:1068D0002823002002E008C8121F08C1002AFAD1AC
:1068E00070477047002001E001C1121F002AFBD150
:1068F000704700000121202803DA8140054801404B
:1069000003E0402802DA2038814009B101207047B5
:1069100000207047FC06FFBD30B52548A5B03C21DE
:10692000006824902348807C8DF892006846FFF729
:1069300086FD02208DF8000001248DF8024006201B
:106940008DF803003C210FA8FFF779FD24A81A4D0C
:106950001490ADF84C402A1D6846296800F058FA9A
:1069600008B100F0F3F8144A0FA80C32A96800F03F
:106970004FFA08B100F0EAF818211EA8FFF75FFDF2
:1069800000208DF88D408DF87840ADF884001F9080
:106990008DF88C004020084920901EAAA1F10C001F
:1069A00072DF002801D000F0D1F825B030BD000022
:1069B00060B102001C240020FC220020064810B513
:1069C0000121007873DF08B100F0C0F8BDE8104085
:1069D000002000F091BD0000F022002038B5002416
:1069E0000E4D05E0686810F8340003F073F8641C7D
:1069F00028788442F6D300208DF80000684600F025
:106A000041F90020C5E904009DF8000000F05EF99E
:106A100003484068BDE8384000F012B93023002038
:106A2000A0B1020070B50024064D06E0686801219F
:106A300010F8340003F072F8641C28788442F5D30F
:106A4000002070BD30230020F8B516460C460546E0
:106A50000A2A01D20720F8BD03F05AF918B903F049
:106A60001DF90028F7D1134F102113487D603C70A9
:106A7000BE60FFF7E4FC0020C7E904000F4E0DE004
:106A800005EBC4003168009181788DF80110007821
:106A90000B4A694603F092F80028DCD1641EE4B288
:106AA000EED2BDE8F84005480021064A001D00F07E
:106AB0005FB800003023002024260020A0B102008F
:106AC000E17E0200CD7A020072B602F037FC00BF10
:106AD00002F080FA0028FBD111481249401AC4087C
:106AE000012000EB044010A102F090FB1148006867
:106AF000C00700D000BE022000EB04400EA102F04F
:106B000085FBBFF34F8F0B48E43801680E4A01F450
:106B1000E06111430160BFF34F8F00BFFDE700004C
:106B200048BC0200F0BB0200466174616C206572D3
:106B3000726F7200F0ED00E053797374656D20722E
:106B400065736574000000000400FA050EB50021AD
:106B50000091CDE901106A4644F20100FFF7B4FF4D
:106B60000EBD0000014801F018B80000702300209D
:106B700010B55AB100684FF0FF3401294261C0E9F5
:106B8000024400D000210161002010BD072010BD8B
:106B900038B5114808235822416800910F49006810
:106BA00001F0CFFC002815D10D4A69460D4800F0D0
:106BB000F9FF04000ED101210A4801F06EF801230B
:106BC000094A1946074800F0C0FF06490120083964
:106BD0000870204638BD0000A8B1020044260020FD
:106BE000BDA5020070230020FFFF7F00F8B504461A
:106BF000002617460D468DF80060684600F042F802
:106C0000D4E90201C04370EA010005D09DF80000FC
:106C100000F05CF80020F8BD01F048F9401971411E
:106C2000C4E902019DF8000000F050F8A761206956
:106C300000B125612146BDE8F840002003F0A4BF63
:106C400038B5044600208DF80000684600F01AF8B8
:106C5000D4E90201C04370EA01000DD04FF0FF30CB
:106C6000C4E902009DF8000000F030F82146BDE8BC
:106C70003840012003F088BF9DF8000000F026F89E
:106C8000002038BD30B5EFF3108172B60D4A94681C
:106C9000012324B10370002900D162B630BD936096
:106CA0004FF0E023D3F88051074C25401560C3F81E
:106CB0008041D3F8844154605A17C3F884210022DC
:106CC0000270E8E79C260020FC06FFBD0B498A689D
:106CD000002A11D000280FD1EFF3108072B60B6894
:106CE0004FF0E022C2F800314B68C2F804310022B4
:106CF0008A60002800D162B6704700009C26002000
:106D00002DE9F041064608680C46411C4FF0A047AB
:106D10004FF0010506D005FA00F1C7F80815206804
:106D200002F012F86068411C02D0002101F0FAFF65
:106D30003168A069C1F82405607D227D3168104367
:106D4000C1F86C05D4E900123068C0F81425C0F809
:106D50000C15207D012815D1A068411C02D000210E
:106D600001F0E0FFE068411C05D08540C7F80855F8
:106D7000E06801F0E9FFD4E902123068C0F80825A4
:106D8000C0F81015BDE8F0812DE9F041064608680D
:106D90000C46411C4FF0A0474FF0010506D005FA04
:106DA00000F1C7F80815206801F0D8FF6068411CA1
:106DB00002D0002101F0BFFF3168A069C1F82405AD
:106DC000607D217D32680843C2F86C05D4E9001269
:106DD0003068C0F80C15C0F81425207D012815D1A5
:106DE000A068411C02D0002101F0A5FFE068411C11
:106DF00005D08540C7F80855E06801F0AFFFD4E939
:106E000002123068C0F80825C0F81015BDE8F081FE
:106E10002DE9FC47002517880646158090F82D00BF
:106E20001446894630B13A462146484600F0E6F815
:106E3000051E09D1B0784FF00C0A18B32088C84657
:106E4000001DB84202D95046BDE8FC87684679DF8C
:106E50000028F9D12088032108F800102088192182
:106E6000401C80B2208008F800102088401C80B2AE
:106E7000208000EB0801BDF8000004F054F82188E0
:106E800008442080F0780222C8B1218896F90330A6
:106E900001F1030C4846BC45D5D8425421884FF037
:106EA000010C491C89B2218000F801C02188491CCD
:106EB00089B2218009F801302088401C2080706848
:106EC000B8B1218890F9003001F1030C4846BC4567
:106ED000B9D8425421880A22491C89B221804254DF
:106EE0002188491C89B2218009F801302088401C82
:106EF0002080308950B1CDE900474B46062202215F
:106F000006F1080004F0C4F8051E9DD1308A50B186
:106F1000CDE900474B460722032106F1100004F09B
:106F2000B7F8051E90D1308B50B1CDE900474B46E4
:106F30001522142106F1180004F0AAF8051E83D1C9
:106F4000306A30B13B462246494600F0F4FC051E4B
:106F5000DBD1706A30B13B462246494601F014FA53
:106F6000051ED2D196F82C0038B13B462246494640
:106F7000304603F07FFC051EC7D1307838B13B4660
:106F800022464946304601F089FA051EBDD1284601
:106F90005AE7000070B5040012D001461C221448C4
:106FA000FFF734FA1248134D0560206850B17ADFBC
:106FB000002806D12068016829604068686005E003
:106FC0000E2070BD0B487BDF0028FAD108484FF631
:106FD000FF711438084A20F8041B05493439016050
:106FE0000021FFF7C5FD0028EBD0032070BD000095
:106FF000CC2400200C230020E5AF02007CB5054620
:1070000008880C460930904201D90C207CBD6846A6
:107010006DDF0028FAD121880820685420881B21C0
:10702000401C80B2208029542088401C80B22080DF
:107030002844DDF801100160BDF80510818020882A
:10704000801D80B220809DF80010490800D00121E9
:1070500029542088401C208000207CBDF8B5334D89
:10706000018804466E8821294BD015DC3048314A0E
:107070001029A0EB02004FEAD0004FF0030202EB10
:10708000004013D011292AD0132943D100231A46D6
:10709000852130467FDF1CE03B2942D052293AD07F
:1070A000562937D18088132176DF12E022A102F021
:1070B000ADF8012000F020FA002000F015FAA188B8
:1070C0006980204801F0D8FB08B1FFF73FFDFFF7CA
:1070D000A9FC00281ED0BDE8F840FFF737BD1AA173
:1070E00002F094F8012000F0FFF94FF6FF7068807D
:1070F000FFF774FC08B1FFF729FDBDE8F840FFF782
:107100005DBC00200090A08869468FDF002801D078
:10711000FFF71CFDF8BD00231A4619463046B1DFC3
:10712000D7E78088132176DFD3E70000F022002024
:1071300048BC0200F0BB0200436F6E6E656374656D
:107140006400000048240020446973636F6E6E651C
:1071500063746564000000002DE9F04701883B4E30
:1071600040F2F3194FF6FF7510291BD011293ED0BC
:10717000122954D0502946D1C188F289841D9142E8
:1071800041D1618902293ED18688304600F0C6FE91
:10719000050038D004F10C0000F078F9A8B32946B6
:1071A00030464EE0C17B8788044601292BD1A84692
:1071B000284600F0B3FE050017D02F80002028726B
:1071C000234843464A460168C5F80A104068C5F896
:1071D0000E0004F1100105F10A0000F05BFF687277
:1071E000F08900280FD129462AE0042013E0808886
:1071F00000F094FE040006D06068FFF721FD08B19E
:1072000003F010FB2580BDE8F087FFE76868FFF713
:1072100017FD0028F7D0BDE8F04703F003BB8788CF
:107220000646384600F07AFE0400ECD02B464A466B
:1072300006F1080104F10A0000F02CFF60722146FB
:107240003846BDE8F04700F0BDBB0000CC2400206C
:107250000C2300202DE9F04F04468688018842481F
:1072600097B0834610290CD0112950D0103019291D
:107270006AD01A2974D1217A0C09042C4DD3012229
:107280004CE0394D083DA868C0430B9069680BA8D5
:1072900001F0C2F90B990CA800F02EFB2C220CA9CE
:1072A0006846FFF7B3F80027E946A84610E000BF9C
:1072B00009EB47005FF00005B0F804A008EB85007B
:1072C0005146001D01F07CF96D1C1E2DF6D37F1C6C
:1072D0000098B842ECD8142E05D317B00420BDE8AE
:1072E000F04FFFF733BC3146584601F07FF9314685
:1072F00008F1040001F07AF9E07B022830D117B0E0
:107300003146BDE8F04F1848001D01F06FB917B0C5
:107310003146BDE8F04F01F053B90022314600F08C
:10732000BFFD032C01D3012200E000220E483146AC
:107330000C3000F0B5FD022C01D3012200E0002248
:1073400009483146083006E0217A002908D1617ADF
:10735000C1F3C002314617B0BDE8F04F00F0A0BD48
:1073600017B0BDE8F08F0000F024002030B58DB0DC
:1073700004462E4B086860610FCB08AD85E80F000E
:1073800004F1120108A862DF00284CD1A07C8DF81E
:10739000320041F22350ADF8300022460CA9012002
:1073A000A8DF00283FD120216846FFF748F841F2C6
:1073B0002450ADF80000A07C8DF8020001259DF856
:1073C0000D00ADF8065040F012008DF81150ADF8E8
:1073D00004508DF80D008DF81350208804F10A0236
:1073E000694600F093F900281DD120216846FFF777
:1073F00026F841F22550ADF80000A07C8DF802007F
:107400009DF80D00ADF8065040F00A008DF81150BF
:10741000ADF804508DF80D008DF812502088A21C94
:10742000694600F073F90DB030BD000084B1020070
:1074300030B40288502A10D1034630F8062F4C8809
:10744000A2420AD14289012A07D14C69002C04D0FA
:10745000027B9888A44630BC604730BC704707B5B3
:1074600086B0012200230093ADF81020019302930F
:1074700003938DF802204989ADF8001008A9039103
:1074800004A902916946AEDF09B000BD007800F0A2
:10749000010070472DE9FC410646C0074FF000058A
:1074A0000ED0104F00240122385D009500231146B4
:1074B000019501F0DDFB641C042CF4D300F024F8EA
:1074C000B0070DD5074E0024361D0022305D032382
:1074D00000951146019501F0CBFB641C042CF4D3FC
:1074E000BDE8FC8164B102000249085C012101F0A1
:1074F00076BC000064B102000249085C002101F082
:107500006EBC000064B1020010B500242046FFF7F5
:10751000EBFF641C042CF9D310BD00002DE9F84FDB
:107520000546861C00208DF8000091460F464FF05E
:10753000010A6846FFF7A6FB1B4C04F21C48606872
:107540003860D4E90101194F401A3968081A0EE071
:107550000121404601F05AF800F0FAFD014640468C
:1075600001F054F8D4E90101401A3968081A401CA6
:107570008642EDD8B9F1000F03D0052065F38910DC
:1075800002E0062065F39F5061683A68114004EB01
:107590008101C8606068304460609DF80000FFF7BA
:1075A00095FB5046BDE8F88F4C280020C0230020F2
:1075B00070B50D4604460A2902D10D21FFF7F8FFE8
:1075C000A0682268411CA1601554D4E901018142E0
:1075D00004D32046BDE8704001F051BA70BD0000F0
:1075E000044881684068814201D101207047002031
:1075F000704700004C28002010B50C460D281BD108
:1076000010481149401AC008032101EB00400FA1A6
:1076100001F0FCFD1548224613494088FFF71FFF83
:1076200000280DD0A0F54051023909D0082807D014
:1076300043F20141884203D0BDE81040FFF786BA0B
:1076400010BD000048BC0200F0BB020053656E6430
:1076500020627574746F6E20737461746520636842
:10766000616E67652E0000001C240020F0220020BF
:10767000034630B5074800210478426806E000BFA1
:1076800002EBC10005789D4203D0491CA142F7DB03
:10769000002030BD3023002005494FF0FF3208287C
:1076A00041F8202002D3084480F8482070470000A9
:1076B00078250020F0B54FF0FF3512B100230826E1
:1076C00001E008230C260C4C05E000BF54F82370A1
:1076D0007F1C04D05B1CB342F8D32846F0BD2618AB
:1076E0005DB286F8305044F82310002AF5D1E11835
:1076F00081F84800F1E7000078250020024908449D
:1077000090F9300070470000782500202DE9F04303
:107710008146887891B090460C4600B901208DF8DA
:107720003E002088ADF83C0000250095607C69464D
:1077300003F0E4F86E46A07C711C03F0DFF8E07BF8
:1077400000289DF8020002D040F0080001E020F07F
:1077500008008DF80200217C11B140F0100001E01A
:1077600020F010008DF80200217B11B140F00100E3
:1077700001E020F001008DF80200217D09B1022115
:1077800000E0012161F342008DF802001C2102A8F3
:10779000FEF755FE607BC10601D4800617D50E9515
:1077A0000EAFE07C791C03F0A9F89DF8380007972C
:1077B00020F00F00401C20F0F00010308DF8380051
:1077C0009DF83A0020F00600801C8DF83A00607B9E
:1077D0008DF80800A07B8DF80900142109A8FEF798
:1077E0002EFE0FA8CDE90906A088ADF83000A068EC
:1077F00020B1E088ADF82C00A0680D90A06998B386
:1078000001950088ADF81000A06901AD01A940887C
:10781000ADF81200A069406806950390A069007B4E
:1078200003F06CF8A069691C407B03F067F8A0695D
:10783000807A00289DF8060002D040F0080001E0A0
:1078400020F008008DF80600A169C97A11B140F056
:10785000100001E020F010008DF80600A169097AFF
:1078600019B140F0010002E00DE020F001008DF8B8
:107870000600A169897B09B1022100E0012161F3C1
:1078800042008DF80600E06900B10590434609AA60
:1078900002A94846AADF11B0BDE8F08370B5084CD4
:1078A000050009D010342168002907D0086820603D
:1078B000496828468847F6E70834F4E770BD0000B9
:1078C00064250020054A012120B1012805D19170CD
:1078D000FFF7E4BF51700020FAE7704764250020ED
:1078E00010B5D0E90234D1E90220D11AA04101D368
:1078F000012010BD002010BD73B58CB006460020DD
:1079000000900D9880B100246D4621460DA800F02E
:1079100062FE30B1009805EB400084800098401C66
:107920000090641C142CF0D32C2269463046FEF7DC
:107930006DFD0EB070BD2DE9F04117880646B81DEB
:1079400014460D46984202D90C20BDE8F0813188DA
:10795000072206290AD34FF4486C4FF6FF7361459E
:1079600001D9994202D17088062801D21046ECE76D
:10797000604501D99842F9D1994203D0984201D08B
:107980008142F3D80520E85520881221401C80B29E
:10799000208029542088401C80B2208041193088E2
:1079A00003F0C1FA2188084480B220804119708810
:1079B00003F0B9FA2188084420800020C5E7FFF7CA
:1079C000C5B8000038B54A7A0F4B62B100220A727E
:1079D0005969002906D001228DF80020ADF8020077
:1079E0006846884738BD0A7A62B19B684C6802468F
:1079F00019462046FFF7FAF80028F3D0BDE83840D2
:107A000002F010BF5B68F1E7CC24002070B588B0AD
:107A10000646002005900690ADF81410ADF816103B
:107A20000190029001AA05A9304690DF050021D0FF
:107A300001F0DCFF0346114811493246401AC108E3
:107A4000012000EB014004460E4901F0EAFBBDF8BD
:107A5000042012B9BDF8060028B1BDF80630204652
:107A600009A101F0DEFBBDF808201AB12046164935
:107A700001F0D0FB08B0284670BD0000F0BB02004A
:107A8000F0BB02009CB402005468652072657175F9
:107A900065737465642054582F5258207061636B6D
:107AA0006574206C656E67746820697320746F6FED
:107AB000206C6F6E672062792025752F2575206FE9
:107AC00063746574732E0000E8B4020070B500247E
:107AD0000F4D10E0686800EBC406307802F0D4F86F
:107AE0007178012901D0012100E000214140307866
:107AF00000F05CF9641C28788442EBDBD5E90401D2
:107B0000084303D0BDE8704003F05AB870BD0000D0
:107B10003023002010B50021024800F088FD80F3DA
:107B2000100010BD682C00204FF480328A4001689C
:107B3000C1F848230068C0F8082370474FF4A072CA
:107B400002EB810189B200F0A1B92DE9F0410546AF
:107B50000E464FF4A07000EB860081B228684FF407
:107B60008034B440984622F07F47C0F80843286824
:107B7000C0F84843286801F005FD286800EB86003E
:107B8000C0F840752868C0F84443B8F1000F02D02F
:107B90002868C0F80443BDE8F0810068D0F8040507
:107BA0007047000070B54379234C44F82320427994
:107BB000231D03EBC202224C1579204A121BD40864
:107BC0002DB10825022000EB04401EA130E005681D
:107BD0000A88C5F8082590F904208978002A4FEA18
:107BE000411104DB02F1E02282F8001405E002F00A
:107BF0000F0202F1E02282F8141D90F90410012214
:107C0000002909DB01F01F0502FA05F54909890081
:107C100001F1E021C1F800514179002503EBC101D8
:107C20000A71417943F83100032000EB04400EA1B2
:107C300001F0ECFA284670BD8C23002030BC020015
:107C4000F0BB020052544320696E7374616E636529
:107C500020616C726561647920696E697469616C18
:107C6000697A65642E0000005254433A20696E69B7
:107C70007469616C697A65642E00000090F90400F3
:107C8000002809DB00F01F0201219140400980001B
:107C900000F1E020C0F8001270470A46022100F00F
:107CA0007BB84FF4827100F0F1B8006801210160E7
:107CB000704700680121416070472DE9F05F074679
:107CC0000C464FF4A07000EB84001FFA80FA38686D
:107CD0004FF48036A6409B4622F07F45C0F84863AB
:107CE0003868C0F808633868D0F8048500EB84026F
:107CF000D2F84095C2F840855146386801F042FC00
:107D0000A9EB080020F07F40012806D1102001F0E7
:107D1000D9FE5146386801F035FC3868D0F8048542
:107D2000C0F84463A5EB080121F07F4138680129C0
:107D300000EB840010D0C0F840553868D0F8041526
:107D40006FF07F4C6A1A521E22F07F42ACEB0B039D
:107D5000934217D362B118E06D1CC0F84055102053
:107D600001F0B0FE3868D0F8040540450AD10CE0B7
:107D700000EB84006D1CC0F840553868D0F804054D
:107D8000884202D00D20BDE8F09F012231463846DE
:107D900000F002F80020F6E70368C3F84413002A55
:107DA00002D00068C0F80413704700002DE9F84FB6
:107DB0000E463449804601EB5001C007097801D0D6
:107DC0000F0901E001F00F074FF0000942460120C2
:107DD0004946FEF707FBDFF8B0A004460D46052F25
:107DE0004ED2DFE807F003161B282C00002E47D0E8
:107DF0000121404602F0D8FD8DF800906846FEF75C
:107E000041FF5046D0E904120C431543CAE904452A
:107E100032E00EB1022114E0002112E04EB1032144
:107E2000404602F0C1FD4046BDE8F84F012103F095
:107E30001FB9012105E0002E22D1042101E02EB15D
:107E400003214046BDE8F84F02F0AEBD0021404698
:107E500002F0AAFD0021404603F00AF98DF80090D7
:107E60006846FEF70FFF5046E243D0E904341A405B
:107E700024EA0501CAE904219DF80000FEF726FF67
:107E8000BDE8F88F242600203023002010B50068BC
:107E900042581AB101F076FB012010BD002010BD40
:107EA0000AB100F0A3BB00F08BBB000010B50B487B
:107EB000FFF773FE094A083AD2E90434C018D2E940
:107EC000063244F10001C31A71EB020204D24FF0F2
:107ED0008072801841F1000110BD00007023002065
:107EE00010B5C0B2FFF7C4FB0446007801F0CCFE29
:107EF00001466078012801D0012000E0002090EACE
:107F0000010F08D00449D1E90401084303D1BDE8B9
:107F1000104002F055BE10BD30230020014603483A
:107F200002888A4200D0002070470000B824002058
:107F30002DE9FC5F0E008346DDE90C47C6F1000029
:107F400098469246814600D40846012503E000BFCA
:107F500090FBFAF06D1C5045FADAA84500D9454669
:107F600024B1002E01DB780700D5641EB80702D5C6
:107F7000B8F1000F0AD0F80708D13CB1A54205D2EC
:107F800020215846641EFFF713FBF6E7002E02DAA5
:107F90004E462D2102E0780703D52B215846FFF7E6
:107FA00007FB07F0030002280BD1B8F1000F08D13E
:107FB0003CB1A54205D230215846641EFFF7F8FABD
:107FC000F6E7CDE90047434652463146584602F0AF
:107FD000AFFFBDE8FC9F000070B50D460446006889
:107FE0004FF4887101F022FD4FF49071206801F088
:107FF0001DFD4FF49271206801F018FD4FF4A2713D
:10800000206801F013FD4FF4AC71206801F00EFD03
:1080100020681249C0F804132068690740F307304C
:10802000090E002804DB00F1E02080F8001405E0D0
:1080300000F00F0000F1E02080F8141D206840F3EC
:108040000730002809DB00F01F02012191404009A0
:10805000800000F1E020C0F8001170BD1003420064
:10806000024600201268530713D502F003000128CE
:1080700002D002280CD105E0C2F383100B68801CEB
:10808000184404E00223086803EB9252104408608D
:1080900001207047F0B58488A518944200D8224684
:1080A000A41AC288D6189A4200D81346D21A4B880E
:1080B0000788BB420CD34088834209D88888A042F5
:1080C00006D3A84204D8C888904201D3B04201D94F
:1080D0000020F0BD0120F0BD0B480C4910B5401A3E
:1080E000C008032101EB00444FF0020022B1FFF76A
:1080F00003FA204606A103E0FFF7F6F9204609A19E
:10810000BDE8104001F082B848BC0200F0BB02009C
:108110005265636569766564204C4544204F4E2165
:10812000000000005265636569766564204C454433
:10813000204F464621000000172101804180002188
:10814000017141711B218171C1717047704700003D
:108150002DE9FF410026244800F055FA2248001F6F
:10816000074600F050FA214C2149A06800900D68A4
:1081700000E000986946284004EB80000C30FFF7CF
:108180006FFF0028F5D101AA009901EA050304EB6D
:108190008303491CDB6842F82030401C0091022810
:1081A000F2D3019800F0030001280BD0022810D16F
:1081B0000198032101EB90500099BDF80A6001EB92
:1081C000900005E00198BDF80A60C0F383100844F0
:1081D0000090384600F014FA08B10098A06004B08E
:1081E0003046BDE8F0810000642C00204C280020BF
:1081F000C023002088B04FF48041002001F072F8C5
:1082000008B1FEF7A3FC00F0D7FE0120FFF742F90A
:10821000FEF7BEFC08B1FEF799FC40F233320121B3
:108220004748FEF711FC08B1FEF790FC01F064F935
:1082300008B1FEF78BFC01F0FBFA08B1FEF786FCF3
:10824000002469460120009401F0ACF908B1FEF762
:108250007DFC684601F026FA08B1FEF777FC9DF830
:10826000080038A120F00F00401C20F0F000103072
:108270008DF808000D2202A87CDF08B1FEF766FC2D
:1082800000945020ADF80000A0200194ADF8020049
:10829000ADF804404FF4C870ADF8060068467ADFC8
:1082A00008B1FEF753FC00212A4800F02BFA08B170
:1082B000FEF74CFC284801A9CDE9004025481430C0
:1082C00000F0E5FA08B1FEF741FC2448009021488F
:1082D00069461838FFF74AF808B1FEF737FCFEF791
:1082E0001BFB1C216846FEF7AAF84FF4A020CDE93D
:1082F0000040801002901A480590032519488DF817
:108300000C500690ADF80E408DF810406846FEF710
:1083100041FE08B1FEF71AFC13481449401AC00880
:1083200005EB004012A100F071FFFEF747FB00BF14
:1083300000F050FE0028FBD101F0F2F8F8E7000051
:10834000F42200204E6F726469635F426C696E6B49
:10835000790000003424002065950200D9800200D5
:1083600051A20200BF79020048BC0200F0BB02002B
:10837000426C696E6B79206578616D706C652073F5
:108380007461727465642E0070B5144682880E465E
:1083900005462088111D0144921C994201D8FE2AED
:1083A00001D90C2070BD521C32542088FF21401C82
:1083B00080B2208031542088401C80B220808119F6
:1083C000288802F0B0FD2188084480B22080AA8865
:1083D00042B1A96841B13044FEF718F82088A98855
:1083E00008442080002070BD072070BD2DE9F047B3
:1083F000C5881E1DB6FBF5F78946B6FBF5F10446A8
:1084000005FB176C407916686843DDF820A0F71863
:10841000001F874200D9C61A166001E02468491E71
:108420000029FBD1A5EB0C078846B74216D818E007
:1084300004EB0C00001D09EB0803BAF1000F3A46EB
:1084400002D00146184600E01946FDF7DFFF246818
:10845000F61B4FF0000CB844B54201D9374600E096
:108460002F46002EE4D1BDE8F087000030B502466B
:1084700051B100F04BFF0021074C08E034F82130E7
:108480001568AB4202D11160002030BD491C814209
:10849000F4D3052030BD000000000000F8B50F4601
:1084A000017814460546012901D1687830B1208849
:1084B000821C9A4232D8012902D006E00720F8BD7A
:1084C00069780144891C994228D8181A801E86B2FE
:1084D000ADF800602188B81C084469467DDF00289B
:1084E000EDD12978022904D06878BDF800209042A7
:1084F00005D3BDF80000B04201D809200AE00820E9
:10850000012905D16978B14202D8ADF8001001E027
:10851000ADF80060BDF80010FE2901D90C20F8BDAF
:108520002288491CB9542188491C89B22180785479
:108530002088401C2080BDF80010084420800020C6
:10854000F8BD10B531B1B2FBF3F403FB14241CB138
:10855000092010BD0E2010BD016000214160816026
:108560008281C381084610BD70B50C460546FDF7F3
:1085700051FE002802D021882868084470BD10B53B
:108580000A8849888A4203D1FDF786FE012010BD82
:10859000002010BD70B50C460546FDF760FE0028B2
:1085A00002D061882868084470BD10B50A884988DF
:1085B0008A4203D1FDF74AFE012010BD002010BD04
:1085C00001F01F0301229A40D243490900EB8100C8
:1085D000114600F021B84A0950F8220001F01F02AC
:1085E00001219140084000D00120704701F01F0395
:1085F00001229A40490900EB8100114600F01CB8A5
:10860000002100F00FB8012100F016B808B56A4645
:10861000FDF797FE009808BD08B56A46FDF777FE9E
:10862000009808BD08B56A46FDF771FE08BD08B59B
:108630006A46FDF753FE08BD08B56A46FDF75AFEC7
:10864000009808BD08B56A46FDF788FE009808BD89
:1086500038B5044600258DF800506846FEF712FB39
:1086600021686268086890420ED9401E086001784F
:10867000238AE26801FB0325227A2168101AC0B21E
:108680000A79824200D208719DF80000FEF71EFBB5
:10869000284638BD38B5054600208DF800000C4648
:1086A0006846FEF7EFFAE868298A201AB0FBF1F174
:1086B0002A681068431C136001709DF80000FEF7E3
:1086C00005FB38BD10B530B1017A42680368891ADC
:1086D000C9B21A6006E00E2010BD03681A68541C67
:1086E0001C601170491EC9B2F7D2006800210171E7
:1086F000084610BDC20800F007030120895C9840BD
:108700000840704710B560B10161172120F8021BC5
:1087100020F8021B1B2100F8021BFFF70DFD0020B3
:1087200010BD0E2010BD0000F0B5858893B00C463A
:10873000002D39D1018800263F4F24293BD006DC8B
:10874000102909D011290CD0232958D14FE03A29FA
:108750000BD0552953D129E00146204601F086FD72
:108760004DE0A01DFFF7E8FC49E02246408934F8BF
:10877000061F814200D808466080172800D21720C3
:108780006080106970B1607960B1D7E90001CDE90E
:108790000301ADF80E506088ADF81000136903A90D
:1087A000104698476671267113B0F0BD0146204609
:1087B00001F0B0FD23E0011D2C2206A8FDF726FEE6
:1087C000BDF81800BDF81C2004EBC0014A732269F3
:1087D000AAB1D7E90423CDE90423ADF81200487B00
:1087E0008DF814002269204604A9904707E0017A19
:1087F000207B884200D201462846FFF707F9A07A7D
:108800000028D1D0E1882846A5DF012580B11128B4
:10881000CAD001F0EBF802460848094913B0401AE3
:10882000C00805EB0040BDE8F04006A100F0F2BC36
:10883000A672E572B8E700006CB10200F0BB02005E
:10884000F0BB020073645F626C655F6761747463A0
:108850005F65786368616E67655F6D74755F72658B
:10886000717565737428292072657475726E6564FC
:108870002025732E0000000020B10278DE2A03D0EC
:10888000082070470E20704741800020704760B17B
:1088900059B10278DE2A0AD009684160DE210170F0
:1088A0004FF6FF714180002070470E20704708206E
:1088B00070477FB5054600294DD0002D4BD0087874
:1088C0000C46DE2847D1A8886188884202D120461C
:1088D00002F0BCFB2888012825D002283BD01128B3
:1088E0003AD0512837D135F8040F6188884232D107
:1088F000A978A81C02292ED1017A042903D00629BF
:1089000001D0052927D10021009102228DF80020F5
:1089100001914FF4C07202910391ADF80420007AE6
:1089200005280FD010E0297A2046012913D1A98803
:10893000428891420FD10121017204B0BDE870401C
:1089400002F084BBADF8041028886946B0DF002827
:1089500001D0616888477FBDA88861888842FAD1C4
:108960004FF6FF7060807FBD00F1804000680028F6
:1089700000D00120704708B500F18040002101605F
:108980000068009008BD000070B50D4C01252078EE
:1089900008B185260EE00020A06060602061E060E4
:1089A000084801F067F8064600F08EFF08B901F0AC
:1089B0004BF8257001F040F800B1A570304670BD4D
:1089C00064250020C578020038B500258DF80050D8
:1089D0006846FEF757F9084CE068401EE060E06822
:1089E00028B901F029F810B901F054F8A5709DF8E4
:1089F0000000FEF76BF938BD64250020F0B5054690
:108A00000478154889B0164640F82420124A0869AF
:108A1000121DA2F1080742F82400487F3855202291
:108A20006846FDF7F3FC04942878385C48B10EB131
:108A30000A4A00E000226946281D01F0DFFA09B069
:108A4000F0BD0EB1064A00E00022694605F10C00B7
:108A500001F09EF9F3E7000018230020E5AD0200C5
:108A60002DAC02000FB408B50399002904D004AA64
:108A700000926A4600F00FF801B05DF814FB10B5E3
:108A800082680446002A05D0D4E904032168984787
:108A90000020A06010BD2DE9FC4791460C008046E7
:108AA00076D014F8011B39B125290ED04046FEF7C7
:108AB0007FFD20780028F4D198F80C00002867D0BA
:108AC0004046BDE8FC47FFF7DABF002001222178CD
:108AD0002B291BD02D2902D0302908D102E040F0EB
:108AE000010001E040F00200641C002AEFD10025E3
:108AF0002A290ED02178A1F130020A2A11D205EBE1
:108B0000850201EB4205641C303DF1E740F00400B2
:108B1000EAE7D9F800100B1DC9F800300968641C99
:108B20000D44217800232E290BD114F8011FA1F147
:108B300030020A2A05D203EB830201EB4203303BE9
:108B4000F3E76C290DD068290BD0692921D00BDC03
:108B5000252918D0582931D063290ED0642915D180
:108B600017E014F8011FECE7702969D0732932D09F
:108B700075291BD0782909D120E0D9F80000011D02
:108B8000C9F8001001784046FEF712FD641C90E71A
:108B90006CE0D9F800100A1DC9F800200968CDE979
:108BA00000500A224046FFF7C3F9EFE7D9F800105A
:108BB0000A1DC9F8002009680A2206E0D9F8001049
:108BC0000A1DC9F8002009681022CDE9005040466E
:108BD00002F0AEF9DAE7D9F8001000270A1DC9F84B
:108BE00000200E68C00705D112E04046761C7F1CAD
:108BF000FEF7DEFC31780029F7D104E02021404661
:108C00006D1EFEF7D5FCBD42C0D9002DF6D1BDE7E3
:108C10004EB13046FDF71EFC074604E020214046D9
:108C20006D1EFEF7C5FCBD4206D9002DF6D103E04E
:108C30004046761CFEF7BCFC31780029F8D1A5E748
:108C4000D9F80000011DC9F8001005683021404620
:108C5000FEF7AEFC78214046FEF7AAFC0820002172
:108C6000CDE90001034610222946B0E7BDE8FC87A4
:108C700070B541EA4201DDE904564FF0A04441EAF3
:108C8000830141EA052104EB800041EA0641C0F876
:108C9000001770BD70B541EA4201DDE904564FF09E
:108CA000A04441EA830141EA052104EB800041EA46
:108CB0000641C0F8001770BD70B541EA4201DDE918
:108CC00004564FF0A04441EA830141EA052104EB38
:108CD000800041EA0641C0F8001770BD70B541EA56
:108CE0004201DDE904564FF0A04441EA830141EA24
:108CF000052104EB800041EA0641C0F8001770BD71
:108D00001CB5002100910B4601220191FFF7D4FF11
:108D10001CBD1CB5002100910B4601220191FFF7FB
:108D2000DDFF1CBD1CB500220B46009211460192CE
:108D3000FFF7C2FF1CBD1CB500220B460092114676
:108D40000192FFF7CBFF1CBD1CB5002100910B4623
:108D5000012201911146FFF7AFFF1CBD1CB5002198
:108D600000910B46012201911146FFF7B7FF1CBD90
:108D70004FF0A04202EB8000D0F8002722F44032EE
:108D8000C0F80027D0F8002742EA0141C0F80017D8
:108D90007047000038B5094B44181B6800936B46B8
:108DA00008E000BF53F82010D1F8205520C2C1F8C8
:108DB0002055401C8442F5D838BD000094B1020013
:108DC00042094FF0000100D1491E00F01F000122AE
:108DD00082400A4201D001207047002070470122E2
:108DE0004FF0A043824011B1C3F808257047C3F883
:108DF0000C257047034908B508440021016000684C
:108E0000009008BD0060004002494058012800D091
:108E1000002070470060004030B5154A0146002030
:108E2000D2F8104423460AE0DB681D79854205D15B
:108E3000401C0A28F6DB4FF0FF3030BD1B68002BCA
:108E4000F2D1431CF9D0CB681871D2F8103443B179
:108E5000DB68CC681B682360D2F81024D2681160EC
:108E600030BDC2F81014C96800220A6030BD00008D
:108E70004C280020F0B595B01C4615460F46084614
:108E80001A9E00F013FB182109A8FDF7D8FA0E96D8
:108E9000CDE909540023082203A9384600F01BFB42
:108EA00005980690BDF81000ADF81C00BDF8120042
:108EB000ADF81E0000208DF821000398082600F070
:108EC0000300012802D0022818D032E0039833466C
:108ED000850AC0F3C2008DF8200003980FA9C0F3E3
:108EE0008314A200384600F0F6FA09A8009006ABF9
:108EF00022460FA9284600F035FA1AE00398840D9F
:108F0000C0F3C2008DF82000082C01D2254600E0F5
:108F1000082533462A460FA9384600F0DCFA2E44CD
:108F2000641B09AB06AA29460FA800F083F9002CA0
:108F3000EAD1384600F0C0FA15B0F0BD7047012004
:108F400001F092BE084810B50178084A515C19B189
:108F5000001D01F0EDF802E00C3000F0E7FFBDE885
:108F60001040002001F080BEA42300201423002024
:108F700008B5034A00924023024AFFF77BFF08BD71
:108F800035A80200B42600200A4A012902EBC000DD
:108F900007D0022907D0032907D0042907D00020D1
:108FA000704702207047042070470079704740796D
:108FB00070470000F0BB020010B5FFF7C0FF0421AE
:108FC0000348FFF729FF02490120C968487110BD15
:108FD000E0BB02002DE9F04F8DB0FEF701FB18B1A8
:108FE00000200DB0BDE8F08F7E4C4FF0000BC4F8B0
:108FF00018B4BFF34F8F7C49A06802900D68D84623
:10900000284004EB80000BE0D4F8180470B96168C4
:109010000298814201D8A160E2E7284004EB800079
:109020000C3002A9FFF71CF80028EDD1002005AA9A
:10903000029901EA050304EB8303491CDB6842F84B
:109040002030401C02910228F2D3059800F0030062
:10905000022802D001284DD0AAE005985022810DA7
:109060008946B2EB905F00D850210E4666F39F50C0
:10907000059008315D4800F0D0F9070078D000F085
:1090800015FA4346082205A9384600F02CFA029941
:1090900008F1080A2940681A8000001D864222D97A
:1090A000504D0C3530B1C2B204EB8101301A9046FC
:1090B0000C3104E02946F2B2002590462846C6B29B
:1090C0005346384600F00FFA0AEB080325B1324642
:1090D0002946384600F007FA029909F1030001EB2E
:1090E000900002903BE004EB810153463246384643
:1090F0000C31EFE70598C0F38310062800D3062053
:10910000059960F38911C1F38310801C05918100DA
:10911000364800F082F907004AD000F0C7F943460C
:10912000082205A9384600F0DEF908F108080026F3
:109130000FE00298434600EA0501401C04EB810160
:109140000290042238460C3100F0CDF908F10408F1
:10915000761C0598C0F38310B042EAD847B1D4F822
:109160001054D4F8180478B1384600F0A5F934E06A
:109170001EE0E8684079012804D12A68284639466B
:1091800012689047E8680568002DF2D1384600F073
:1091900093F98DF800B06846FDF774FDD4F8180413
:1091A00008B90298A0609DF80000FDF78FFD14E05B
:1091B000D4F8104405E02168204689688847E068B3
:1091C0000468002CF7D10A480A49401AC008022155
:1091D00001EB004008A100F019F8FEF701FA80F059
:1091E0000100FEE64C280020C023002068BC0200DD
:1091F00048BC0200F0BB02004261636B656E6473A1
:1092000020666C75736865640000000000231A46D0
:1092100001F0E2BB08B5012300926A4601F0DCFBD5
:1092200008BD1CB5CDE9002302236A4601F0D4FB3A
:109230001CBD00002DE9F0470E4680461C469246B4
:10924000082940D894F80C90002020731946104645
:1092500001F05CF90025B54206D218F805201BA1E3
:109260002046FFF7FFFB03E01AA12046FFF7FAFBB9
:109270006D1C082DEFD318A12046FFF7F3FB002546
:10928000B54212D218F805707E2F08D8FDF7BAF84B
:109290000068C05D10F03E0F01D03A4600E02E227B
:1092A0000EA12046FFF7DEFB03E00DA12046FFF7ED
:1092B000D9FB6D1C082DE3D301222146504601F055
:1092C00007F984F80C90BDE8F087000020253032C3
:1092D00078000000202020007C00000025630000B2
:1092E00020000000064910B500200870054800F075
:1092F000E1F8002803D1044800F036F9002010BD41
:109300004C28002068BC020064B3020002480349F4
:10931000401AC0087047000068BC0200F0BB0200A1
:1093200013B56846FFF7A2F808B100201CBD02483B
:10933000009950F831001CBDF0BB020070B5084820
:109340000125D0F81044057007E0E06845712168F8
:10935000204649688847E0680468002CF5D170BD54
:109360004C2800202DE9FF4781460C9D00200C462B
:109370002F7B2873984616462946184601F0C6F8F2
:10938000072E42D2DFE806F004090F161F2A360026
:1093900049462846FFF766FB37E0494628462268DB
:1093A000FFF760FB31E0D4E9002349462846FFF788
:1093B00059FB2AE0A0680090D4E9002349462846DA
:1093C000FFF750FB21E0D4E90201CDE90001D4E927
:1093D000002349462846FFF745FB16E004F1080044
:1093E00007C88DE80700D4E9002349462846FFF75F
:1093F00039FB0AE004F108000FC88DE80F00D4E93A
:10940000002349462846FFF72DFB00222946404607
:1094100001F05EF82F73BDE8FF872DE9F041058A62
:1094200080462D1F4819C01CB0FBF5F0C6B240465F
:10943000FFF70EF9041E19D0002020710120607181
:10944000E58000272546761EC4F800800BE04046E4
:10945000FFF7FEF860B16179491C6171286005462B
:109460007F1CC0F80080B742F1D32046BDE8F081F0
:10947000204600F002F80020F8E72DE9F041457998
:1094800001466B1E002201E00968521C9A42FBD380
:109490000F680146002605E038460C68FFF7FAF829
:1094A0002146761CAE42F7D3BDE8F0810121001DB4
:1094B000FFF7ACB8FFF706B910B504460121001D4F
:1094C000FFF7C0F810F0FF0F04D12046BDE81040B0
:1094D000FFF7D3BF10BD1CB501920122009201AA73
:1094E000FEF784FF1CBD1CB501920022009201AA68
:1094F000FEF77CFF1CBD0000064910B50020487037
:10950000091D0860BFF35F8F0349044800F000FAAB
:10951000002010BD98230020F0B10200A8260020F2
:1095200008B500208DF800006846FDF7ABFBF1EEB2
:10953000100A20F09F00E1EE100ABFF35F8F084988
:109540004020C1F880029DF80000FDF7BFFB00F04D
:10955000BBF908B141DF08BD20BF40BF20BF08BD37
:1095600004E000E0FDF7F2BA8268002191608268B1
:109570001161826851618268D1608268516080683F
:109580000160704708B5002242504058009008BD65
:1095900020B1034909680160002070470E20704720
:1095A000E8B30200FEB502460E460846FFF7F0FF9C
:1095B000002868D1002400940194012706208DF82A
:1095C0000020ADF8040002948DF802706946202056
:1095D000326869DF2C492D4A891AC908012202EB39
:1095E000014530B100F002FA024628462849FFF74B
:1095F00011FE00948DF801708DF8024001940294E0
:109600008DF8034069464020326869DF30B100F0D0
:10961000EDF9024628461F49FFF7FCFD00940A2099
:109620008DF800000194029469460120326869DFD8
:1096300030B100F0DBF9024628461749FFF7EAFD92
:109640004FF4B0600090019402946946A120326802
:1096500069DF30B100F0CAF9024628460F49FFF72A
:10966000D9FD0094019402948DF800406946A02031
:10967000326869DF30B100F0B9F90246284608497E
:10968000FFF7C8FD0020FEBD58BC0200F0BB020081
:1096900088BA0200D0BA0200E8B9020034BA020067
:1096A00094B902002DE9F0410546076860DF804665
:1096B00019491A482A68081AC608BA4219D9022054
:1096C00000EB064416A12046FFF7A0FD20463A46CF
:1096D0001FA12B68FFF7A5FD4FF08050D0F80C01BB
:1096E0002968800200F10050421A204625A1FFF7A8
:1096F00091FDB8F100004FF001040AD000F076F9B6
:10970000024604EB06402AA1FFF784FD4046BDE86F
:10971000F0812F480470F9E758BC0200F0BB02004A
:10972000496E73756666696369656E742052414D52
:1097300020616C6C6F636174656420666F72207465
:10974000686520536F66744465766963652E000012
:109750004368616E6765207468652052414D2073CF
:1097600074617274206C6F636174696F6E206672CD
:109770006F6D203078257820746F20307825782E12
:10978000000000004D6178696D756D2052414D20DB
:1097900073697A6520666F72206170706C696361AD
:1097A00074696F6E20697320307825782E00000070
:1097B00073645F626C655F656E61626C6528292009
:1097C00072657475726E65642025732E000000004A
:1097D0001724002030B5144891B00078002820D01C
:1097E0005FF03405ADF8405010A903A861DF30B137
:1097F000052816D011B0BDE83040FDF7A7B903AC7D
:109800000A49684600F084F807E000BFD0E900216B
:1098100020469047684600F092F802980028E1D070
:10982000F4E711B030BD000017240020ECB30200B3
:109830007CB5194C207808B108207CBD0120A070AF
:10984000002000F0C1FF112819D0002000F0D4FF43
:1098500012480026006801908DF800606846FDF708
:1098600011FA0F4901A810DF05000AD0002020706E
:109870009DF80000FDF72AFA2DB128467CBD002096
:109880007CBD0120F3E7A670667001F05BF8012053
:1098900000F0B2FFF3E700001424002080B30200C0
:1098A000C96A02000EB50749684600F031F805E0C4
:1098B000D0E900108847684600F041F80298002877
:1098C000F6D10EBD9CB3020001480078704700003D
:1098D000142400201FB568464BDF30B1052814D092
:1098E00004B0BDE81040FDF731B9084901A800F007
:1098F0000FF806E0D0E900210098904701A800F099
:109900001EF803980028E6D0F4E71FBD08B4020053
:10991000016009684160AFF3008010B5D0E9002113
:109920005368994201D1002104E0D1E90034A342F7
:1099300002D01946816010BD08314160F0E78168AE
:1099400000290BD0026892680A44826041684B6823
:109950009A4203D108314160FFF7DFBF704770B50D
:109960000D460646446804E0B2682946904718B19F
:10997000246820680028F7D120682860256070BD21
:1099800040680068704741680868002801D0026894
:109990000A60704702460020526806E08B4203D1FD
:1099A00008681060012070471A461368002BF5D133
:1099B000704700000C4A10B502F594730EE0991A36
:1099C000C91001EBD171491002EBC1010C6884424E
:1099D00001D90B4602E005D201F108029A42EED30A
:1099E000002010BD486810BD10B2020000B5FFF79E
:1099F000E1FF002800D1014800BD0000FCB10200D9
:109A00004058002800D00120704708B5002242507D
:109A10004058009008BDD0F80403084000D0012051
:109A200070474058002800D00120704708B5002238
:109A300042504058009008BD02480068002800D0FD
:109A4000012070470004014008480068012110F01F
:109A5000010F06D14FF0E020C02280F800248430AE
:109A6000C1670349012008607047000000E100E081
:109A7000180500400649024600200B790BB18520ED
:109A800070470A6001220A7100224A717047000083
:109A900020230020022010B54107C1F808034FF42D
:109AA0008270FEF768FF05490120086004480168DC
:109AB000C1F300410029FAD110BD00000C000040A4
:109AC00018040040002802D001498001084770476F
:109AD000C1B1020010B5044600F080FC28B1204658
:109AE000BDE810400021FFF743B9204600F082FC9A
:109AF00000280FD02046FDF701FE074A02EB800147
:109B0000D1F8103523F00103C1F81035012181404F
:109B1000C2F8081310BD0000006000402DE9F041BC
:109B20000E46054600F05AFC0028284619D0FDF7DD
:109B3000E5FD083800F0C4FC032802D001280ED04F
:109B400007E04FF0A040D0F81005E84010F0010FFA
:109B500005D003212846BDE8F041FFF709B90221ED
:109B6000F8E700F047FC002822D02846FDF7C6FDA4
:109B700004464FF4807000EB84000E4F81B207EB77
:109B80008400D0F8102542F00102C0F810250846E4
:109B9000FFF730F9002E0BD02846FDF7AFFD064940
:109BA00051F82000002803D00120A040C7F804038A
:109BB000BDE8F08100600040782500202DE9FC41DF
:109BC000DFF8B880044608EB0400002790F9300065
:109BD0001346C0170E46401C01D008274AE0B07853
:109BE0001946C0F340022046FDF764FD0546401CBF
:109BF0003FD0B078410717D4C0070AD04FF0A0403B
:109C000000EB8400D0F8001721F00201C0F8001723
:109C100007E000217378204600910A460191FFF782
:109C200039F8204600F0CCFBB078800718D51448EE
:109C3000317800EB8500D0F81025124B1A40C0F89F
:109C400010254FF4F8524FF4403302EA042203EA9D
:109C500001410A43D0F810150A43C0F8102509E065
:109C600008EB0500327810F8481F41EA82110170B4
:109C700000E004273846BDE8FC810000782500207C
:109C800000600040FFE0FCFF4FF0A041D1F810154C
:109C9000C14011F0010000D00120704770B5194D8E
:109CA00095F8580008B1082070BD0024661E2046B3
:109CB000FFF786F810B1281980F83060641CE4B210
:109CC000202CF4D300242046FDF7E6FC641CE4B20B
:109CD0000C2CF8D300200D4968650B4CC02081F88E
:109CE000000401264020891FC1F800014FF4BE7016
:109CF000FFF780F8A004C4F8040385F8586000203A
:109D000070BD0000782500200060004006E000E003
:109D1000034890F85800002800D001207047000048
:109D2000782500200121B1EB507F01D1012070473F
:109D30000020704738B50D4600F034FC040014D004
:109D400000208DF800006846FCF79CFF207928B1C0
:109D50009DF80000FCF7BAFF112038BD01202560F6
:109D600020719DF80000FCF7B1FF002038BD10B550
:109D700000F018FC002802D000210160017110BD24
:109D80000149024800F098BFD4250020002000407F
:109D90002DE9F0410546007916460F4600EB4001DB
:109DA0002D4A01EBC00102EB810494F82A1011B195
:109DB0000820BDE8F081294951F820102868FFF7F4
:109DC000B9FF08B11120F4E739462846FCF798FF9F
:109DD00066603869206030004FF001062FD03F7F69
:109DE0004FF48E712868FFF710FE4FF4A2712868B7
:109DF000FFF70BFE28681A49C0F8041328684FEAD9
:109E0000471140F30730002804DB00F1E02080F820
:109E1000001405E000F00F0000F1E02080F8141DB0
:109E2000286840F30730002809DB00F01F0106FA1C
:109E300001F14009800000F1E020C0F8001128681D
:109E40000421C0F800150020A061E06184F8290019
:109E500044F8140FA675ACE7D425002098B1020091
:109E6000800002002DE9F05F054600790B4600EB0B
:109E7000400101EBC000244901EB8004284600F0BA
:109E800045F810B11120BDE8F09F62614FF0000964
:109E9000C4F82090A36084F828904FF48E784E4642
:109EA00041462868FFF7B1FD28684FF0010AC0F865
:109EB00008A02146286800F08FFE606808BBD5F82E
:109EC00000B067690FE000BF94F8280008B10F26C2
:109ED00015E041465846FFF793FD0028F4D021468F
:109EE000584600F079FE206AB842F2D35746414600
:109EF0002868FFF785FD0028F9D02868C760C4F8F6
:109F000014903046BFE70000D4250020007900EB14
:109F1000400101EBC000044901EB800040690028CA
:109F200000D0012070470000D42500202DE9F04723
:109F3000044600794FF0000900EB400101EBC0003E
:109F4000284901EB80072068C0F800957868B0B117
:109F500020682549C0F80813206840F3073000281E
:109F60000DDB00F01F02012191404009800000F14B
:109F7000E020C0F88011BFF34F8FBFF36F8F2068D0
:109F8000D0F80C25D0F81485D0F80865D0F8105515
:109F90004FF0FF31C0F81415C0F80C152068C0F858
:109FA0000815C0F81015501C02D01046FEF7A8FE88
:109FB000B8F1FF3F02D04046FEF7A2FE681C02D077
:109FC0002846FEF79DFE701C02D03046FEF798FE34
:109FD0002068FFF7CCFE87F82A90C7F80490BDE808
:109FE000F0870000D42500208402020001490248C5
:109FF00000F010BF00260020002000402DE9F041B5
:10A000000546164600790F46154A00EBC00102EBE3
:10A01000810494F8201011B10820BDE8F0811149A5
:10A0200051F820102868FFF785FE08B11120F4E7E9
:10A0300039462846FCF7A8FE6660386920601EB1E4
:10A04000397F2846FDF7C8FF28680821C0F80015A9
:10A050000020A061E0616061012184F82010DCE74C
:10A06000002600209CB102002DE9F04704460E4670
:10A070000079274900EBC00001EB80051746304608
:10A08000FFF750FE30B1204600F044F820B1112017
:10A09000BDE8F0871020FBE76F61AE604FF490776A
:10A0A0004FF0000839462068FFF7C0FC4FF4AC764B
:10A0B00031462068FFF7BAFC2068AA686969C0F8D1
:10A0C0004425C0F8481520684FF00109C0F80890F1
:10A0D0006868D0B9BA4651462068FFF7A2FC074627
:10A0E00031462068FFF79DFC0743F4D010B14FF0D4
:10A0F0000F0808E02068C0F80C9031462068FFF790
:10A1000090FC0028F9D0002068614046C0E70000BC
:10A11000002600200079054900EBC00001EB80001B
:10A120004069002800D00120704700000026002070
:10A130002DE9F047064600793D4900EBC00001EBF0
:10A140008005346868680127A8B13A49C4F8081343
:10A15000306840F3073000280DDB00F01F0107FADC
:10A1600001F14009800000F1E020C0F88011BFF348
:10A170004F8FBFF36F8FD4F8000220F02000C4F897
:10A180000002A8694FF4A27820B141462046FFF7AB
:10A190004DFC67604FF4AC7949462046FFF746FC1A
:10A1A000E760474649462046FFF73BFC0028F9D0C8
:10A1B000A86928B139462046FFF733FC0028F1D0C2
:10A1C0004FF0000AC4F800A53068D0F80C25D0F88C
:10A1D0001495D0F80885D0F810754FF0FF31C0F80D
:10A1E0000C15C0F814153068C0F80815C0F8101523
:10A1F000501C02D01046FEF78CFDB9F1FF3F02D093
:10A200004846FEF786FD781C02D03846FEF781FDF1
:10A21000B8F1FF3F02D04046FEF77BFD2046FFF736
:10A22000A6FD85F820A0C5F804A0BDE8F0870000D1
:10A23000002600201003420003490860034801681B
:10A240000029FCD07047000004E5014000E4014013
:10A250000078002807D104483B21408876DF002899
:10A2600001D0FCF773BC7047F022002070B58D88D8
:10A27000027900EBC5042273C97BA41D012902D019
:10A28000022904D101E0008800E040882080218874
:10A290006088814211D92846A5DF0126B0B1112876
:10A2A00016D0FFF7A3FB02460B480C49401AC00822
:10A2B00006EB00400AA1FEF7ADFFA179E0798142EB
:10A2C00008D92846BDE87040FDF7A0BB6671F4E7E9
:10A2D0002671F2E770BD0000F0BB0200F0BB020087
:10A2E00073645F626C655F67617474635F657863F4
:10A2F00068616E67655F6D74755F726571756573B2
:10A300007428292072657475726E65642025732E19
:10A31000000000007CB506468D88C88806EBC504A1
:10A32000A41D172800D217202188814200D8084692
:10A3300060800020207121882846B5DF60B1FFF7DA
:10A3400055FB02460F481049401AC008012101EB95
:10A3500000400EA1FEF75EFF6079002810D1306941
:10A3600000280DD01549D1E90201CDE90001ADF871
:10A3700002506088ADF80400326969463046904763
:10A380007CBD0000F0BB0200F0BB020073645F62A2
:10A390006C655F67617474735F65786368616E672D
:10A3A000655F6D74755F7265706C792829207265C0
:10A3B0007475726E65642025732E00006CB1020006
:10A3C00010B50549C20800F00703885C01249C40D1
:10A3D0002043885410BD0000CC25002004490844C7
:10A3E00090F93000082801DB0120704700207047F9
:10A3F000782500200449084490F93000082801D24B
:10A400000120704700207047782500202DE9F05F7B
:10A410002A4F06464FF0A04A4FF0010B002438198E
:10A4200090F95010491C3CD090F85000314620F073
:10A43000C0052846FEF75EF920B3204600F040F83C
:10A4400081460AEB8500D0F80007C0F30148B8F157
:10A45000020F18D002212846FEF78AFC0BFA05F1FC
:10A46000CAF820152846FDF749F957F820204AB1C7
:10A470004846B9F1030F11D0B8F1020F05D0B8F179
:10A48000030F07D00DE00321E5E74846B9F1010FBE
:10A4900004D006E04846B9F1020F02D10146284631
:10A4A0009047641C042CBAD3324601210020FEF7E9
:10A4B00071FC30680028B1D1BDE8F09F78250020FC
:10A4C0000249084490F85000800970477825002020
:10A4D00010B50C46017A052908D0407A38B10848F1
:10A4E00008A102682046FEF7BDFA00E01AB106A1F5
:10A4F0002046FEF7B7FA2046BDE81040FEF7BFBA87
:10A50000F0230020257300000D0A000038B5C38831
:10A510000D46044633B114A0009015A216A128469A
:10A52000FEF7A0FA217A05291CD0607A48B1A088EC
:10A53000FEF72AFD164951F8202016A12846FEF7FD
:10A5400091FAA0880021FEF7EBFE03461049207A1D
:10A55000143951F8202001B02846BDE830400EA142
:10A56000FEF780BA38BD00001B5B306D00000000B4
:10A570001B5B313B33316D0025734C6F6773206477
:10A58000726F70706564202825642925730D0A0098
:10A59000F0230020257300003C25733E2025733AEC
:10A5A000200000000349884201D103487047002081
:10A5B00070470000002000402823002070B50546A9
:10A5C000FDF76FFB134C40B1D4E904024FF08071EA
:10A5D000411842F10000C4E9041000212846FDF7AB
:10A5E000ADFA30B1606820B1606800F041FA002037
:10A5F000606001212846FDF7A1FA18B1FDF756FC6D
:10A60000C4E90601284600F07FFA2846BDE87040FC
:10A6100000F038B8682300202DE9F04100260E70C4
:10A62000D0E902740D468046FDF740FC381A00233D
:10A6300064EB01011A461B1A8A4115DAB0F5350F91
:10A6400004D3FCF78FFA0D49421800E03A464FF464
:10A65000960300210A48FDF730FB10B10D2807D002
:10A660000AE00120BDE8F08100210548FDF75CFA11
:10A67000404600F0FDF928700020F3E7FFFFB4002A
:10A6800070230020F8B5204C064600251F48FFF730
:10A6900077F910B3D0E90210CA4372EA000224D05D
:10A6A000626882B16368D3E90223891A984127D28C
:10A6B0006068D0E90210C94371EA000103D0616803
:10A6C0001248FFF74CF900F069F907466946FFF7B1
:10A6D000A3FFB0B1606858B10DE0606800280FD1E9
:10A6E0003046BDE8F840FDF7E4BA00F057F9CDE791
:10A6F0003046FDF7DAFA67609DF800000028C5D102
:10A70000F8BD6560C2E7000068230020B0B1020018
:10A7100070B5054688690C4600284FF484712846B8
:10A720000AD0FFF772F9D5F81805626AE168885413
:10A73000606A401C606270BDFFF767F9D5F81805C4
:10A7400070BD1FB501238DF80030CDE90121D0E99E
:10A750000012684690471FBD1FB501238DF80030D9
:10A76000CDE90121D0E90012684690471FBD0000E5
:10A7700038B50021012548B1012810D003280DD19A
:10A78000FFF762F9BDE83840FEF71EB94FF0E02050
:10A79000C0F88051BFF34F8FBFF36F8F38BD8DF876
:10A7A00000106846FCF76EFA064C207808B9FEF7F0
:10A7B000EBF8E068401CE060A5709DF80000FCF735
:10A7C00085FA38BD642500203EB50446094968462F
:10A7D000FFF79EF808E000BFD0E90021204690472F
:10A7E00030B16846FFF7ABF802980028F4D13EBDBF
:10A7F00011203EBD84B302003EB5044608496846B8
:10A80000FFF786F807E000BFD0E900212046904717
:10A810006846FFF794F802980028F5D13EBD000085
:10A8200090B3020002498969002900D008477047A7
:10A83000CC24002070B50D4C0020D2B22070201D19
:10A840000B4D0378EB5C1BB1001DFFF70DFC02E024
:10A850000C30FFF707FB08B1FCF778F960780028A7
:10A8600002D021780029FAD070BD0000A02300207A
:10A87000142300202DE9F0410746806A14468846DB
:10A88000C8B3002531E000BFB96A05EB450001EB14
:10A890008006B088801CFE2802D90C20BDE8F0811B
:10A8A0002288401C08F8020020881622401C80B232
:10A8B000208008F800202088401C80B2208000EB17
:10A8C0000801308800F02FFB2188084480B22080E6
:10A8D000B28842B1B16871B14044FBF797FD20885E
:10A8E000B188084420806D1CEDB297F82C00A84276
:10A8F000CAD80020D2E7FFE70720CFE70A7806286A
:10A9000022F0FF020A7010D2DFE800F00305070909
:10A910000B0D002008E0112006E0212004E031208A
:10A9200002E0122000E0222008707047002805D1C4
:10A930000349012048700020FCF7B0BF70470000B9
:10A940006425002010B51620FBF7D4FFA0B11148F4
:10A9500090F800044009082811D20121814011F02B
:10A96000EC0F0CD00C4882684FF480016AB101688A
:10A9700041F48001016010BD42F2010001E042F2A9
:10A980000200BDE81040FCF7E1B84FF0E020C0F84D
:10A99000001110BD16E000E09C2600200148FEF7E3
:10A9A000F2BF0000B0B10200C207002A03D000BF0E
:10A9B0004FF00F0201E04FF0F00201D04FEA011119
:10A9C000044B03EB5003187800EA020040EA010050
:10A9D00018707047242600202DE9F84F07462248BA
:10A9E0009146884605681E46012269461846FCF7CE
:10A9F00095FDDFF878A060B3009800210446801C24
:10AA00000AE000BF00EA050259F821C00AEB820201
:10AA1000401C491CC2F80CC0B142F3D34FEA17499D
:10AA2000FDF778F8611C29400AEB810149EA0042F0
:10AA30002C40CA600AEB8401C86867F3C50066F35E
:10AA4000891068F39F2020F00300401C20F00400D0
:10AA5000C8609AF8000001E0FEF7BCFA0028FBD1BC
:10AA6000FDF774FBBDE8F88FC02300204C280020C0
:10AA7000F8B5044622480026007878B374B3FDF791
:10AA800015FAD4E90232C01A91412DD300258DF870
:10AA900000506846FCF7F6F8206910B9681EC4E952
:10AAA00002009DF80000FCF711F9D4E90510884771
:10AAB0008DF800506846FCF7E5F822697AB1D4E9D0
:10AAC0000210CB4373EA000309D089186841C4E936
:10AAD00002109DF80000FCF7F9F809E00DE09DF880
:10AAE0000000FCF7F3F808E0D84370EA020004D055
:10AAF00021460448FEF733FF01263046F8BD00002A
:10AB000068230020B0B1020038B51D4D69462868A1
:10AB1000FDF740FD1B4C30E0017821B101290ED03A
:10AB2000022922D117E04168D1E90220D24372EA1A
:10AB300000021AD012480830FEF711FF15E04168F4
:10AB40006068814202D1002060600EE00C4808304D
:10AB5000FEF720FF09E0FFF721FF20B14FF0FF31A2
:10AB6000C0E90211F7E70120207069462868FDF767
:10AB700006FD69462868FDF70DFD0028CCD138BDDB
:10AB8000A8B1020068230020F8B50B4C0D4606461C
:10AB900069462068FDF7E8FC58B1067045606946D3
:10ABA0002068FDF702FD10B10448FDF767F80020AA
:10ABB000F8BD0420F8BD0000A8B1020070230020F9
:10ABC000034880684108034800224068FCF70EB83B
:10ABD00030230020A0B1020070B50C4605464FF4AA
:10ABE0008E71FEF712FF216AA068415C206A401C4A
:10ABF0002062C5F81C1570BD1FB500228DF800201D
:10AC00000291816801914261D0E900126846904743
:10AC10001FBD1FB500228DF80020029181680191AF
:10AC20004261D0E90012684690471FBD1FB50A4631
:10AC300001788DF8001041680191017A8DF80810B3
:10AC4000C0680390044850F82210001F50F82220DA
:10AC5000684690471FBD00001C23002001490120C9
:10AC600008707047A023002010B588B00446202249
:10AC70000E496846FBF7CAFB06200090C01F0190F2
:10AC8000029003904FF0EB7006900CB1084A00E080
:10AC9000002269460748FDF7B1FE08B1FBF756FFF1
:10ACA0000448001F447008B010BD000044B3020007
:10ACB0005DAC0200A42300202DE9FF470C460546A9
:10ACC0004FF40071FEF7A7FE01274FF4017800262C
:10ACD00018B34FF4927949462846FEF791FEE0B149
:10ACE00049462846FEF791FEC5F8088394F82900E6
:10ACF00000B96F6002208DF80000D5F88004C5F817
:10AD000080040390A0690290E0680190A661E6616A
:10AD1000D4E900126846904728E004212846FEF74F
:10AD20007AFE18B34FF484712846FEF769FEE8B145
:10AD300021462846FFF7ECFC616AA069884215D1DC
:10AD4000E06938B1E268616AA0612069E661666223
:10AD5000E06008E094F8290000B96F60C5F8088346
:10AD6000A661E268616A2046FFF7EBFC4FF48E783B
:10AD700041462846FEF744FE80B16069216A81425F
:10AD800002D294F8280028B341462846FEF73DFE3B
:10AD9000606918B161692046FFF72EFF4FF4A27871
:10ADA00041462846FEF72CFE002818D0414628468A
:10ADB000FEF72BFE94F8290000B12F60A06900284F
:10ADC0000DD0A661E268616A04B02046BDE8F04794
:10ADD000FFF7B7BC21462846FFF7FEFEDEE7BDE8D9
:10ADE000FF8700001FB50A4601788DF80010416802
:10ADF0000191017A8DF80810C0680390044850F85A
:10AE00002210001F50F82220684690471FBD000006
:10AE10001C2300202DE9FF410C464FF49277054694
:10AE20003946FEF7FEFD0026B8B139462846FEF742
:10AE3000FDFD02208DF80000D5F88004C5F88004DF
:10AE40000390D5F83C050290E0680190A661E661A8
:10AE5000D4E900126846904723E04FF488773946DA
:10AE60002846FEF7DEFDE0B139462846FEF7DEFD56
:10AE7000D5F83C15A069884213D1E06960B1E26859
:10AE8000D5F8000220F02000C5F80002E069A061BA
:10AE90002069E661E06001E0A661E2682046FFF714
:10AEA0005BFC4FF4A27739462846FEF7BAFD68B13D
:10AEB00039462846FEF7BAFDA06938B1A661E661B9
:10AEC000D5F83C152046E268FFF746FC4FF4907633
:10AED00031462846FEF7A5FD60B131462846FEF70B
:10AEE000A5FD0120E860606920B1D5F84C15204629
:10AEF000FFF78FFE4FF4AC7631462846FEF791FD02
:10AF000000280ED031462846FEF790FD60690028E3
:10AF100007D0D5F84C1504B02046BDE8F041FFF746
:10AF200078BEBDE8FF810870000A487002207047B3
:10AF30002DE9F05F8346DDE90A4A994690460D46C1
:10AF40000846012703E000BFB0FBF8F07F1C404536
:10AF5000FAD2B94500D94F465FEACA7012D18CB116
:10AF60005FEA8A7002D5B9F1000F01D0202607E010
:10AF7000302605E031465846641EFCF719FB0CB13B
:10AF8000A742F7D35FF00106B9F1010F02D9A9F189
:10AF9000010903E0B5FBF6F0404502D306FB08F6D5
:10AFA000F2E7DFF83C9000BFB5FBF6F000FB16556A
:10AFB00019F800105846FCF7FBFAB6FBF8F6002E1D
:10AFC000F2D15FEACA7009D0002C07D0A74205D29F
:10AFD00020215846641EFCF7EBFAF5E7BDE8F09F28
:10AFE000C6B10200F8B5054680B2FCF797FF040031
:10AFF00013D0154E207A0027317B88420ED2A8B29A
:10B0000004F10A0175DF28B1112806D0BDE8F84027
:10B01000FFF708BC207A401C2072F8BD2772307CF4
:10B0200038B1A8B23B2176DF18B1082801D0FFF76C
:10B03000F9FB71690029F0D08DF80070ADF802506D
:10B0400068468847F8BD0000CC24002030B4044690
:10B05000007A00280AD06088002166DF28B1112814
:10B0600002D0616830BC08470120207230BC7047B4
:10B0700070B50C460546FCF7FBFA002807D042687D
:10B08000002A04D021462846BDE87040104770BD14
:10B090002DE9FC411646DDE90854CDE900541F4670
:10B0A0008046022200F00CF8002807D1CDE90054B8
:10B0B0003B4610223146404600F002F8BDE8FC81D4
:10B0C0002DE9FC5F0026DDE90C4B994692468E4641
:10B0D00080462788354630E0D8F80400002200EB8F
:10B0E000850069460068019001A864DF002830D11E
:10B0F0009DF8000050451FD10EB1002100E0022153
:10B10000228808441118594522D846B9521C90B2D9
:10B11000208009F800E02088401C2080012621883A
:10B1200001A801EB0902694664DF002811D12088DB
:10B130009DF80010084420806D1CB8F80000A8425B
:10B14000CADC56B12088C01B401E80B2FF2802D93D
:10B150000C20BDE8FC9F09F807000020F9E700007B
:10B1600023150000111213140D0E0F10770A0000A2
:10B1700000000000770A0000000000007ADA0000FA
:10B180000000000023D1BCEA5F782315DEEF121225
:10B190000000000000000050819D0200ED9F0200B1
:10B1A0000300000048230020342600200100060090
:10B1B0000000000088230020E17802000000000069
:10B1C0000338FDD8704730313233343536373839AB
:10B1D00041424344454600000000000000000000DA
:10B1E000000000000000000000000000000000005F
:10B1F000D8B10200F0B1020004000000556E6B6E81
:10B200006F776E206572726F7220636F64650000E5
:10B2100000000000B8B802000100000064B702009E
:10B220000200000058B5020003000000D8B7020079
:10B23000040000002CB80200050000000CB702005A
:10B2400006000000A8B602000700000014B80200C3
:10B250000800000020B702000900000084B70200C7
:10B260000A000000A0B802000B00000040B5020078
:10B270000C00000038B702000D00000008B9020001
:10B280000E00000004B802000F00000040B80200E9
:10B290001000000074B80200110000001CB9020088
:10B2A00012000000F0B80200130000008CB8020089
:10B2B00080000000C0B6020081000000FCB5020062
:10B2C00082000000BCB50200830000009CB50200B3
:10B2D00084000000D8B5020085000000E4B602003A
:10B2E00086000000ECB702009000000088B6020063
:10B2F000910000007CB50200920000004CB70200F3
:10B300000082000054B8020001820000A0B70200D1
:10B3100002820000BCB702000084000018B60200E0
:10B3200001840000C4B802000284000060B602007C
:10B33000038400003CB60200718F0200458F0200BA
:10B340003D8F0200FFFFFFFFFFFFFFFFFFFFFFFF3B
:10B35000FFFFFFFF00000000000000000000D6011A
:10B3600006010000B42700207F00000034280020E0
:10B3700000000000000000000000000000000000CD
:10B380000100000770B3020080B302000800000053
:10B39000A8B30200B8B3020008000000B8B302006E
:10B3A000C8B3020008000000C4BC0200CCBC02000C
:10B3B0000000000000000000B4BC0200C4BC020099
:10B3C00000000000000000007CBC020084BC020001
:10B3D00084BC020094BC020094BC0200A4BC020025
:10B3E000A4BC0200ACBC0200F0220020C8B30200E2
:10B3F000E8B3020008000000ACBC0200B4BC0200CC
:10B400000000000000000000F8B3020008B40200D1
:10B410000800000000404040404040404040414162
:10B420004141414040404040404040404040404019
:10B4300040404040400502020202020202020202B3
:10B4400002020202022020202020202020202002B0
:10B450000202020202029090909090901010101040
:10B4600010101010101010101010101010101010DC
:10B470000202020202028888888888880808080870
:10B48000080808080808080808080808080808083C
:10B49000020202024000000015B4020073645F6201
:10B4A0006C655F6761705F646174615F6C656E6736
:10B4B00074685F75706461746528292028726571ED
:10B4C0007565737429206F6E20636F6E6E6563748B
:10B4D000696F6E20307825782072657475726E659C
:10B4E000642025732E000000546865207265717514
:10B4F000657374656420636F6D62696E6174696FF2
:10B500006E206F6620545820616E6420525820705F
:10B5100061636B6574206C656E6774687320697312
:10B5200020746F6F206C6F6E672062792025752004
:10B530006D6963726F7365636F6E64732E000000D4
:10B540004E52465F4552524F525F494E56414C490A
:10B55000445F4441544100004E52465F4552524FB1
:10B56000525F534F46544445564943455F4E4F54EE
:10B570005F454E41424C4544000000004E52465F3C
:10B580004552524F525F464541545552455F4E4FCA
:10B59000545F454E41424C45440000004E52465FC8
:10B5A0004552524F525F4D555445585F554E4C4F82
:10B5B000434B5F4641494C45440000004E52465FB4
:10B5C0004552524F525F4D555445585F4C4F434B77
:10B5D0005F4641494C4544004E52465F4552524FEA
:10B5E000525F4D555445585F434F4E445F494E4955
:10B5F000545F4641494C4544000000004E52465FAE
:10B600004552524F525F4D555445585F494E49542B
:10B610005F4641494C4544004E52465F4552524FA9
:10B62000525F424C455F495053505F52585F504BF8
:10B63000545F5452554E4341544544004E52465F68
:10B640004552524F525F424C455F495053505F50F4
:10B650004545525F52454A45435445440000000069
:10B660004E52465F4552524F525F424C455F4950E1
:10B6700053505F4C494E4B5F444953434F4E4E45E8
:10B6800043544544000000004E52465F4552524F1D
:10B69000525F4150495F4E4F545F494D504C454DAC
:10B6A000454E5445440000004E52465F4552524FAD
:10B6B000525F4E4F545F535550504F5254454400C3
:10B6C0004E52465F4552524F525F4D4F44554C4586
:10B6D0005F4E4F545F494E495449414C495A454485
:10B6E000000000004E52465F4552524F525F4D4F90
:10B6F00044554C455F414C52454144595F494E4980
:10B700005449414C495A4544000000004E52465F9E
:10B710004552524F525F4E4F545F464F554E440074
:10B720004E52465F4552524F525F494E56414C4928
:10B73000445F5354415445004E52465F4552524F68
:10B74000525F444154415F53495A45004E52465F4F
:10B750004552524F525F494F5F50454E44494E4704
:10B76000000000004E52465F4552524F525F535602
:10B77000435F48414E444C45525F4D495353494EF7
:10B78000470000004E52465F4552524F525F494EAD
:10B7900056414C49445F4C454E4754480000000018
:10B7A0004E52465F4552524F525F4452565F545775
:10B7B000495F4552525F414E41434B004E52465FF6
:10B7C0004552524F525F4452565F5457495F45525B
:10B7D000525F444E41434B004E52465F4552524FDA
:10B7E000525F494E5445524E414C00004E52465F06
:10B7F0004552524F525F53544F524147455F465551
:10B800004C4C00004E52465F4552524F525F4E55CF
:10B810004C4C00004E52465F4552524F525F494ECB
:10B8200056414C49445F504152414D004E52465F93
:10B830004552524F525F4E4F5F4D454D0000000044
:10B840004E52465F4552524F525F464F5242494414
:10B8500044454E004E52465F4552524F525F44524D
:10B86000565F5457495F4552525F4F5645525255A5
:10B870004E0000004E52465F4552524F525F494EB5
:10B8800056414C49445F4144445200004E52465F89
:10B890004552524F525F5245534F55524345530004
:10B8A0004E52465F4552524F525F494E56414C49A7
:10B8B000445F464C414753004E52465F5355434305
:10B8C000455353004E52465F4552524F525F424CD1
:10B8D000455F495053505F4348414E4E454C5F4190
:10B8E0004C52454144595F45584953545300000058
:10B8F0004E52465F4552524F525F434F4E4E5F434A
:10B900004F554E54000000004E52465F4552524F74
:10B91000525F54494D454F55540000004E52465F0A
:10B920004552524F525F4255535900007761726E33
:10B93000696E670064656275670000001B5B313BE0
:10B9400033306D001B5B306D000000001B5B313B32
:10B9500033316D001B5B313B33326D001B5B313B80
:10B9600033336D001B5B313B33346D001B5B313B6C
:10B9700033356D001B5B313B33366D001B5B313B58
:10B9800033376D00696E666F000000006572726F7C
:10B990007200000073645F626C655F6366675F736B
:10B9A000657428292072657475726E65642025732C
:10B9B000207768656E20617474656D7074696E6758
:10B9C00020746F2073657420424C455F4741545486
:10B9D000535F4346475F534552564943455F43488B
:10B9E000414E4745442E000073645F626C655F639F
:10B9F00066675F73657428292072657475726E6559
:10BA000064202573207768656E20617474656D709D
:10BA100074696E6720746F2073657420424C455FB3
:10BA2000434F4D4D4F4E5F4346475F56535F55550D
:10BA300049442E0073645F626C655F6366675F7381
:10BA4000657428292072657475726E65642025738B
:10BA5000207768656E20617474656D7074696E67B7
:10BA600020746F2073657420424C455F47415454E5
:10BA7000535F4346475F415454525F5441425F53C2
:10BA8000495A452E0000000073645F626C655F6375
:10BA900066675F73657428292072657475726E65B8
:10BAA00064202573207768656E20617474656D70FD
:10BAB00074696E6720746F2073657420424C455F13
:10BAC000434F4E4E5F4346475F4741502E000000B4
:10BAD00073645F626C655F6366675F736574282972
