:10000000405C00207D3901001B3A0200513901009B
:10001000513901005139010051390100000000003F
:10002000000000000000000000000000F9330100A3
:100030005139010000000000A533010051390100D1
:10004000A934010063630200A9340100A93401004E
:10005000A9340100A9340100A9340100A934010028
:100060002B630200A9340100A93401004963020096
:10007000A9340100A9340100A9340100A934010008
:10008000A9340100A9340100A9340100A9340100F8
:10009000A9340100A9340100A9340100A9340100E8
:1000A000A9340100A9340100A9340100A9340100D8
:1000B000A9340100A9340100A9340100A9340100C8
:1000C000A9340100A9340100A9340100A9340100B8
:1000D000A9340100A9340100A9340100A9340100A8
:1000E000A9340100A9340100A9340100A934010098
:1000F000A9340100A9340100A9340100A934010088
:1001000053B94AB9002908BF00281CBF4FF0FF317E
:100110004FF0FF3000F00CB8ADF1080C6DE904CEE3
:100120000BF012FFDDF804E0DDE9022304B07047B4
:10013000704700BF2DE9F00791E8F807B2E8021018
:100140005B1854EB0C04B2E802104D4156EB0C0660
:10015000B2E802104F4158EB0C08B2E8021059EB1C
:1001600001095AEB0C0A80E8F80780410130BDE82C
:10017000F00770472DE9F00791E8F807B2E80210A0
:100180005B1A74EB0C04B2E802108D4176EB0C069E
:10019000B2E802108F4178EB0C08B2E8021079EB5C
:1001A00001097AEB0C0A80E8F80780414042BDE87B
:1001B000F00770472DE9F007524290E87800B1E867
:1001C00080071740DB1918EA020854EB080419EA03
:1001D000020955EB09051AEA020A56EB0A0678C02D
:1001E00090E87800B1E8800717407B4118EA0208E0
:1001F00054EB080419EA020955EB09051AEA020A48
:1002000056EB0A0678C080410130BDE8F007704720
:100210002DE9F007524290E87800B1E880071740D6
:10022000DB1B18EA020874EB080419EA020975EBF3
:1002300009051AEA020A76EB0A0678C090E8780007
:10024000B1E880071740BB4118EA020874EB0804C4
:1002500019EA020975EB09051AEA020A76EB0A06A1
:1002600078C080414042BDE8F00770472DE9F001B9
:1002700052424FF0040890E8300091E8C000A31B00
:100280001340E41AF618EB1B1340ED1AFF1830C0A8
:10029000C0C1B8F10108EED1BDE8F001704700BF60
:1002A00000B592E8DC072DE9DC07B1E8805702B41D
:1002B000A7FB02510A95A8FB020BE7FB6310E9FBC1
:1002C00062B00B91A8FB0351EAFB6201E7FB64B546
:1002D000E7FB6605E8FB6615CDF830B0A9FB03B671
:1002E000EAFB6316ECFB6356E8FB640BE9FB641B5B
:1002F000EAFB645BECFB646B0D90ACFB0230059C8D
:10030000EEFB6250E9FB6460EAFB64B0E7FB64313A
:10031000E8FB6451069CE8FB6461E9FB64B1EAFB1D
:1003200064010E93A7FB0432079CE7FB6462E8FBC1
:1003300064B2E9FB6402EAFB6412049CE9FB6453C7
:10034000EAFB6463089CE7FB64B3E8FB6403E9FB36
:100350006413EAFB64230F955DF8049B99E800069B
:10036000DDF80080A9FB0854EAFB68B4DDF81080D2
:10037000ECFB6804EEFB6814E9FB6824EAFB6834D4
:10038000DDF80480EEFB6865E9FB68B5EAFB68050B
:10039000DDF81480ECFB6815EEFB6825E9FB683599
:1003A000EAFB68450F96DDF80880AEFB0876E9FBAE
:1003B0006806EAFB6816DDF81880ECFB6826EEFBA1
:1003C0006836E9FB6846EAFB6856DDF80C80ECFB12
:1003D00068B7EEFB6807E9FB6817EAFB6827DDF8FA
:1003E0001C80ECFB6837EEFB6847E9FB6857EAFBCB
:1003F000686708B000BD00BF2DE9F14F87B0FFF777
:100400004FFFDDF81C8008F1200888E8FF00FFBCE2
:1004100087E87F08BDE8F08F00B591E89857A3FB07
:1004200003520195A3FB0401E3FB6420E3FB671087
:100430000292A3FB0752E3FB6802E4FB6415E3FBB3
:100440006805E3FB69250391A4FB07B6E3FB692676
:10045000E3FB6A56E4FB670BE4FB682BE3FB6A5B98
:10046000E3FB6C6B0490A4FB0810E4FB6950E3FB16
:100470006C60E3FB6EB0E7FB6721E4FB6951E4FBD2
:100480006A61E3FB6EB1E4FB6E010592A7FB0832E3
:10049000E4FB6A62E4FB6CB2E4FB6E02E7FB6E1203
:1004A000E7FB6853E7FB6963E4FB6CB3E7FB6C03B2
:1004B000E7FB6E13E8FB6E230695A7FB0954E7FBE9
:1004C0006AB4E7FB6C04E8FB6C14E8FB6E24E9FB00
:1004D0006E34E8FB6865E7FB6AB5E8FB6A05E8FB94
:1004E0006C15E9FB6C25E9FB6E35EAFB6E4507965A
:1004F000A8FB0976E8FB6A06E9FB6A16E9FB6C26AD
:10050000EAFB6C36EAFB6E46ECFB6E56E8FB69B71D
:10051000E9FB6907E9FB6A17EAFB6A27EAFB6C3724
:10052000ECFB6C47ECFB6E57EEFB6E6700BD00BF4B
:100530002DE9F14F87B0FFF76FFFDDF81C8008F160
:10054000200888E8FF00FFBC87E87F08BDE8F08F3F
:1005500030B44FF0000310F8014B11F8015B013A81
:1005600084EA050443EA0403F5D1A3F101034FEA49
:10057000D37030BC704700BF4FF0000310F8012B60
:10058000013943EA0203F9D1A3F101034FEAD37021
:10059000704700BF30B411F8014B12F8015B6C409A
:1005A00000F8014B013BF6D130BC70472DE9F00754
:1005B00091E8F807B2E802105B1854EB0C04B2E8BB
:1005C00002104D4156EB0C06B2E802104F4158EBB9
:1005D0000C08B2E8021059EB01095AEB0C0A8941E8
:1005E000B3F1FF3374F1FF3475F1FF3576F1000696
:1005F00077F1000778F1000879F101097AF1FF3A03
:1006000051F100015B184C414D4156F1000657F184
:10061000000758F1000859EBD1795AEB010A80E83C
:10062000F807BDE8F00770472DE9F00791E8F807F3
:10063000B2E802105B1A74EB0C04B2E802108D41B0
:1006400076EB0C06B2E802108F4178EB0C08B2E8AA
:10065000021079EB01097AEB0C0A89415B184C41D5
:100660004D4156F1000657F1000758F1000859EBCB
:10067000D1795AEB010A80E8F807BDE8F007704726
:1006800018EB040859EB05095AEB060A5BEB070B5C
:100690005FF0000C4CF1000C18EB050859EB060953
:1006A0005AEB070A5BEB070B50EB0C005FF0000CFA
:1006B00051EB0C0152EB0C0263414CF1000CB8EB16
:1006C000070879F100097AF1000A7BEB040BA841D5
:1006D000B141A241B3416CF1000CBBEB050BB04141
:1006E000B941AA41BB416CF1000C6FEAEC74B8EB64
:1006F000040879EB04097AEB040A7BF1000B70F132
:10070000000071F1000172EBD472A3416CF1000C96
:1007100018EBEC7859EBEC795AEBEC7A5BF1000BC7
:1007200050F1000451F1000552EBDC7653EBEC770D
:100730004CF1000C18EBEC7059EBEC715AEBEC72CD
:100740005BF1000354F1000455F1000556EBDC7633
:1007500057EBEC77704700BF2DE9F14F87B0FFF7FB
:100760009FFDDDF81080DDF81490DDF818A0FFF78C
:1007700087FFBDE8000FFFF783FF03B05DF8048B30
:1007800088E8FF00BDE8F08F2DE9F14F87B0FFF753
:1007900043FEDDF81080DDF81490DDF818A0FFF7B7
:1007A0006FFFBDE8000FFFF76BFF03B05DF8048B30
:1007B00088E8FF00BDE8F08F01480078704700002E
:1007C0002800002070B5174C6078002823D1012044
:1007D00060700CF06EF86FF0270528B90CF09FF8E8
:1007E00010B90CF0A6F820B10F486060A570082081
:1007F00010E00CF033F840B90CF03AF828B90CF0DE
:100800004EF810B90CF05FF830B107483130606035
:10081000A5700420E07070BD40F23F11742003F019
:1008200025FC000028000020C60B0100064A00B588
:1008300092F90320904201DB104600BD00F008F859
:100840000249085600BD000028000020B80B010036
:100850000246134810B590F903309A4201DB0D208F
:1008600010BD90F902309A4201DC002010BD01B1A8
:100870000121D41A4368185D0A4C24569442F5D0DD
:10088000084C08443F34C0B2D2B2A342EED1002992
:10089000ECD0012A01D0022AE8D1401CC0B210BD20
:1008A00028000020B80B01002DE9F0411C469046BD
:1008B0000D4606466FF01507042804D81CB10BF04E
:1008C00093FCA84202D83846BDE8F081054842466C
:1008D00050F8260018B14057824200DD02462270CF
:1008E0000020F1E7780A0020002819D00378134986
:1008F000134A13B1012B0ED011E00379012B00D064
:100900006BB943790BB1012B09D18368643B8B42EE
:1009100005D2C0680EE00379012B02D00BB1002094
:10092000704743790BB1012BF9D1C368643B8B420B
:10093000F5D280689042F2D8012070473D860100D0
:10094000FF3F420F10B5054C206810B180470020D2
:100950002060BDE8104002F085B8000030000020A3
:100960002DE9F0410E46050004D000F047F8074697
:1009700000240BE06FF01500BDE8F081204600F088
:1009800043F890F8260030B1641CE4B2BC42F5D3C1
:100990006FF00B00F0E72746FF2CF9D0204600F05F
:1009A00033F804460BF0ECFD84F828702146084823
:1009B00002F030F884F82700202806D001202562B4
:1009C00084F8260037700020D6E76FF02200D3E7C6
:1009D000ABC2000010B5820702D06FF00D0010BD51
:1009E000054A1170506028B101EB41010A01002154
:1009F0000CF06AF8002010BD340000200148007897
:100A0000704700003400002005490A78904201D365
:100A100000207047496800EB400001EB0010704770
:100A2000340000200E4910B591F83200202812D071
:100A300091F83200A1F58062C0EBC00002EB8000AB
:100A400091F832104068C1EBC10152F82120BDE895
:100A500010400421104740F6BC01702003F006FB53
:100A60008C0E002070B50546202A28D019481A4C53
:100A700000EB831C03EB43030CEB420023442029CF
:100A800022D00CEB410140784C784870204601465A
:100A90000CEB4100914205704078F8D193F8222088
:100AA000202A1ABF0CEB4202547083F82140202206
:100AB0000CEB410C8CF8012083F8221070BD4FF430
:100AC0002671702003F0D2FA93F82040407883F822
:100AD0002000DBE70C0E00208C0E00202DE9FF4FDC
:100AE0008DB015460C4602F009FA284420F07F40EC
:100AF00008902168081A0002C11700EB116000126B
:100B0000002800F3F080DDF84080CD4808EB480174
:100B10000844099090F820502020CA4E0DF1180A80
:100B20000DF11C098DF81800202D1CBFC64800EBE4
:100B3000881B38D0C5EBC50006EB800000F108012A
:100B4000C0682768381A0002C21700EB1260001252
:100B500029D4E08900B3C889F0B90868039003F08C
:100B6000C7F8B0F5C67F08BF0D200BD0A0F54070C8
:100B7000563808BF1C2005D0A0F500709F3814BF60
:100B800000203220411C0398381A0002C21700EBE3
:100B900012600012884206DB0BEB45008AF8005019
:100BA0004578202DC6D19AF8000089F80000202D44
:100BB0001CBFA54800EB881B00F03E81C5EBC500BB
:100BC00006EB80076168D7F8088007F10800A8EBFA
:100BD00001010902CA1701EB1261091227D4C08969
:100BE000002800F02981E089002840F02581D4F810
:100BF00000A003F07DF8B0F5C67F08BF0D200BD034
:100C0000A0F54070563808BF1C2005D0A0F5007034
:100C10009F3814BF00203220411CA8EB0A000002BC
:100C2000C21700EB12600012884280F2058189F839
:100C30000050387E217C884206D90BEB4500457870
:100C4000202DBBD100F0F8B89DF81C00C0EBC0000F
:100C500006EB8000C18AC568E1BBE189D1B3876832
:100C600003F046F8B0F5C67F08BF0D200BD0A0F505
:100C70004070563808BF1C2005D0A0F500709F3882
:100C800014BF00203220411CE81B0002C21700EBF9
:100C90001260001288421DDA03F02AF8B0F5C67F10
:100CA00008BF0D200BD0A0F54070563808BF1C209F
:100CB00005D0A0F500709F3814BF002032209DF8A9
:100CC0001C10401CC1EBC10106EB8101896808447E
:100CD00020F07F450898281A0002C11700EB116028
:100CE0000012002803DD11B00020BDE8F08F20685D
:100CF000A84202D9A168491CA16061680DF1180AD7
:100D0000081A284425F07F4120F07F40C4E90010F4
:100D100010980B9009980DF11C0890F82050202095
:100D20008DF81800202D3CD047490B9801EB801B13
:100D3000C5EBC50006EB800000F10801C06827681C
:100D4000381A0002C21700EB1260001229D4E089A1
:100D500000B3C889F0B9D1F8009002F0C9FFB0F52E
:100D6000C67F08BF0D200BD0A0F54070563808BFD5
:100D70001C2005D0A0F500709F3814BF0020322041
:100D8000411CA7EB09000002C21700EB1260001221
:100D9000884206DB0BEB45008AF800504578202D91
:100DA000C6D19AF8000088F800000B98202D1CBFCF
:100DB000254901EB801B3FD0C5EBC50006EB800742
:100DC0006068D7F8089007F10801A9EB000000025D
:100DD000C21700EB1260001222D4C88960B3E08908
:100DE00050BBD4F800A002F083FFB0F5C67F08BF67
:100DF0000D200BD0A0F54070563808BF1C2005D040
:100E0000A0F500709F3814BF00203220411CA9EBD0
:100E10000A000002C21700EB1260001288420BDACF
:100E200088F80050387E217C88427FF60DAF0BEBAE
:100E300045004578202DBFD111B00120BDE8F08FCD
:100E40008C0E00208C0A00200C0E00202DE9F84F9B
:100E50000F46064601EB47004B4999460844924627
:100E600090F8204020201070A1F58068202C1CBF35
:100E7000464800EB871B38D0C4EBC40008EB800069
:100E800000F10801C0683568281A0002C21700EB9B
:100E90001260001229D4F08900B3C889F0B908683B
:100EA000009002F025FFB0F5C67F08BF0D200BD0E3
:100EB000A0F54070563808BF1C2005D0A0F5007082
:100EC0009F3814BF00203220411C0098281A0002CD
:100ED000C21700EB12600012884206DB0BEB4400E5
:100EE0008AF800404478202CC6D19AF8000089F88E
:100EF0000000202C1CBF254800EB871A40D000BF03
:100F0000C4EBC40008EB80077068BD6807F10801F6
:100F1000281A0002C21700EB1260001222D4C889FE
:100F200070B3F08960BBD6F800B002F0E1FEB0F516
:100F3000C67F08BF0D200BD0A0F54070563808BF03
:100F40001C2005D0A0F500709F3814BF002032206F
:100F5000411CA5EB0B000002C21700EB126000124F
:100F600088420DDA89F80040387E317C884202D808
:100F70000020BDE8F88F0AEB44004478202CBFD154
:100F80000120BDE8F88F00008C0E00200C0E002020
:100F90002DE9F74F98B0154602F05EFA044602F0CC
:100FA000D9FC06461998012818BF022805D040F63A
:100FB00092114FF0700003F059F8FA4901200860CF
:100FC000F9498968086000208DF846000A90401EA3
:100FD0000B90F649C5EBC50001EB8001D1E9020396
:100FE000D1E904C2CDE90C03CDE90EC289691091A3
:100FF0000BF073FB0246BDF83E809DF83C00EC4BC5
:101000004044411C50189A4254D8EA4DA94258DC39
:101010006A4291425DDB591C8142DCBF00F5F7005A
:10102000A0F1F85005DD0028BCBFA0F5F70000F1E5
:10103000F8501490E048B8F1000F808BADF84400F0
:1010400014BF4FF0010A4FF0000A02F097FF16900C
:10105000BAF1000F08D0D848C06AB0F1FF3F02BF14
:1010600016980028012701D04FF0000702F040FE3B
:10107000B0F5C67F08BF0D200BD0A0F540705638E4
:1010800008BF1C2005D0A0F500709F3814BF0020B9
:1010900032204FF00009CB461390464536D9149BB9
:1010A000DFF80C936FEA060C694617AA03EB0C00F5
:1010B0004B4504D940F29E51702002F0D7FFAC4559
:1010C00004DD40F29F51702002F0D0FFBB4B9C45E5
:1010D00004DA4FF4B461702002F0C8FFB84B8342C9
:1010E000DCBF00F5F700A0F1F85005DD0028BCBF1B
:1010F000A0F5F70000F1F85001F01CFF00980C99E2
:1011000020F07F400090081A20F07F49002F18BF80
:10111000DDF84CB005D19DF84400002818BF4FF011
:10112000020BB4F1807F08D00C98001B0002C1179D
:1011300000EB11600012012802DA0320189D0DE077
:1011400057B19D4890F8300030B19DF8440010F13F
:10115000000B18BF4FF0020B2546002083440C986B
:10116000A0EB090020F07F41481E20F07F40421B89
:101170001202D31702EB136212125A4504DBB9F1C3
:10118000000F18BF0C912DE0B9F1000F05D09DF8AC
:10119000450020B902F0D4FB08B1AFB90CE02FB97B
:1011A0009DF84400002818BFABF1020B4FF0000976
:1011B0008DF844904E4607E09DF8440020B1002091
:1011C0008DF84400ABF1020B0C98A0EB0901481E0E
:1011D00020F07F40421B1202D31702EB136212125F
:1011E0005A457DDB744AD26A891A0902CB1701EB92
:1011F0001361169B09123BB9B2F1FF3F1CBF139A52
:101200009142B8BF002100DB01213AEA010167D118
:10121000199905464FF00009059101F0F5FF281ACC
:101220000002C11700EB11604FEA202B02F060FDB5
:10123000B0F5C67F08BF0D200BD0A0F54070563822
:1012400008BF1C2005D0A0F500709F3814BF0020F7
:1012500032200B3058451FDD0598012801D047B1D9
:1012600012E0B4F1807F1CD140F61311702002F01F
:10127000FDFEB4F1807F07D0601B0002C11700EBB8
:1012800011600012042804DD2C46204601F0E2FF24
:1012900007E0002863DC04E02C46204601F0DAFF7A
:1012A000D146B4F1807F55D00C980D9A001B121BCB
:1012B00020F07F4022F07F42012850D3B0F5000F8C
:1012C00098BFB2F5000F4AD820460BF006FA1499E1
:1012D000384A0D1A4FF0000BAA1A7BF1000200E009
:1012E0003DE016D3334A431A9A1A7BF1000210D319
:1012F0002F4AAA423EBFC0F5902000F1F450451895
:1013000007D39A422FD2C1F5902101F1F45108443C
:101310004542294FB87F58B31998012805D00220BB
:1013200002F0D4F9012002F0D1F9B0452CD2A5EB9E
:1013300006014FF0020002F013F990B3B8F1000F6C
:101340001CBFA5EB0801012044D000BF02F008F942
:1013500038B33FE040F63121702002F087FE1BB029
:101360000020BDE8F08F40F60531702002F07EFECF
:10137000B04534BF304640461E30A842CCDB40F674
:101380004521702002F072FE1CD9A5EB0801012056
:1013900002F0E6F828B1002E1CBFA91B022019D0CC
:1013A000D4E742E0080500403C0000208C0A002001
:1013B000FF7F841E0040420F8C0E002000C0BDF055
:1013C0000080841E56EA080004D040F67611702092
:1013D00002F04CFE2946002002F0C2F828B3012694
:1013E000BAF1000F04BF97F83000002802D0B9F11D
:1013F000000F24D0F86AB0F1FF3F04D002F07EFC69
:101400004FF0FF30F862B9F1000F1CD01398201A8A
:1014100020F07F41052002F0A3F860B397F8300078
:10142000002808BF87F8306015E0022002F04EF96E
:10143000012002F04BF91BB00020BDE8F08FF86AE4
:10144000B0F1FF3F12D097F8300020B1052002F034
:101450003DF987F830B0A5EB0800A0F1190100298B
:101460000EDC40F66E21702002F000FE02F062FCFD
:1014700001F0CAFEC6E74FF43E71702002F0F6FD9F
:10148000032002F06DF8C0B10E488068C0F800B0CB
:101490000D48C0F800B00AAC94E80F0038607960DD
:1014A000BA60FB600EAC94E80F0038617961BA61F4
:1014B000FB611BB00120BDE8F08F40F67621702063
:1014C00002F0D4FD3C000020080500402DE9FF4F4C
:1014D00014460D464FF0000A0A89514662F31F4137
:1014E000AA7AD14662F30709EA7A064662F30F291F
:1014F0002A7883B04068C4F800A062F31749C4F8A2
:1015000004A0C4F81090C4E902019D4F7068A0FBCC
:10151000078930680BF0E1F810EB08014AEB09028B
:1015200028784FEA6709C9F1000B70B1E08994F897
:101530001180C043D5F804A004F10C0248457CDDBD
:1015400040F29F51702002F091FDDFF838C2D5E9DA
:10155000040311EB0C0A42F1000CB0EB0A0A73EB26
:101560000C0C72D2411A73EB02016ED3B0EB080679
:10157000B7422BD8E089A6F1F458A8F59028C143CA
:10158000814A08EB010042452BD34945D8DC594537
:1015900066DB8742DCBF00F5F700A0F1F85005DDFF
:1015A0000028BCBFA0F5F70000F1F8506A4601A979
:1015B00001F0C0FCE0899DF80010301A401A401E6E
:1015C000B84202D3A068401CA0604646E0896E4B3A
:1015D000C1436D6894F81180701804F10C029E42AA
:1015E00004D940F29E51702002F040FD4945A7DC2D
:1015F000594535DB8742DCBF00F5F700A0F1F85014
:1016000005DD0028BCBFA0F5F70000F1F850214629
:1016100001F090FC206820F07F417019401C21608F
:10162000B8F1000F08BF7A3004D0B8F1010F08BF3D
:1016300048303AD101F062FC01E00EE005E020F014
:101640007F40606007B0BDE8F08F3068401E20F03A
:101650007F40206000F57A70F3E70146584504DAD0
:101660004FF4B461702002F001FD8742DCBFA1F1AC
:10167000F450A0F5902005DD0028BCBF01F1F45026
:1016800000F59020214601F055FC2068B8F1000FCC
:1016900020F07F410AF10100216008BF7A3009D0B3
:1016A000B8F1010F08BF483004D040F23961702012
:1016B00002F0DCFC01F022FC20F07F416160B4F814
:1016C0000E9001AA69464846376801F033FC02F0E3
:1016D00041F901F013FC80462C4890F83210202983
:1016E0002AD0C068401D20F07F4000BFD4E900210F
:1016F000891A014421F07F41C4E900013168814227
:1017000002D9A068401CA060326828692146069B67
:10171000FFF7E4F900281CBF07B0BDE8F08FD4E95B
:101720000010401A316821603168084420F07F4081
:10173000606007B0BDE8F08F0937B9F1000F16D02F
:1017400002F01CFC98B902F0D3FAB0F5C67F08BFCE
:101750000D200BD0A0F54070563808BF1C2005D0D6
:10176000A0F500709F3814BF002032200744009875
:10177000804584BFA8EB0000074427F07F40B5E711
:101780000080841E0040420FFF7F841E8C0E0020CC
:1017900070B51E4D95F83200202818BF70BD95F821
:1017A000312002EB4200284490F82040202C27D022
:1017B000174B03EB821101EB4401497880F82010AC
:1017C000FF2085F8290085F832402146022000F0EC
:1017D00091F8002085F82800A8770E49C4EBC400D2
:1017E00001EB8000007E002808BF02F0A9FD002068
:1017F00009494968002908BF70BDBDE87040084725
:1018000040F23231702002F031FC00008C0E0020DA
:101810000C0E00208C0A00203C0000202DE9F05F17
:10182000DFF8C08098F8315005EB4500404490F84F
:101830002140202C08BFBDE8F09FDFF8ACB0DFF8F6
:10184000ACA0AAF560790AEB8517072617F81400F3
:1018500001280ED0042808BF02260AD005280CBF94
:101860000326062805D040F6DD014FF0700002F097
:10187000FDFBBBF1000F18BFAFF30080EFF310804A
:1018800072B607EB44014A7805EB4501414481F803
:10189000212091F82220A24204BF202281F8222098
:1018A000C0B12A462146012000F024F8C4EBC4014F
:1018B00009EB810059F8212040683146904798F89B
:1018C000315005EB4500404490F82140202CBAD11E
:1018D000BDE8F09F0648002818BFAFF3008062B64D
:1018E000DFE700008C0E0020000000000C0E00203E
:1018F00000000000DFF858C010B500230CEB821C7C
:1019000007281FD2DFE800F00505050504040400E0
:1019100001230CF81100002B08BF10BD02EB42029E
:101920000C48024492F8220020280EBF82F82110B1
:101930000CEB4000417020200CEB4103587082F802
:10194000221010BD40F26E21702002F08FFB0000CB
:101950000C0E00208C0E00202DE9F05F0F46804613
:10196000DFF860A101EB47005044B8F1010F90F897
:101970002040254618BFB8F1020F05D040F6AC2133
:101980004FF0700002F072FB4FF0000B202D42D0A0
:101990009AF81E000026002808BF022601F034FC39
:1019A000DFF824C1C4EBC4010CEB81018A68C9686B
:1019B000121A091A22F07F4221F07F41964299BF04
:1019C000B2F5000FB1F5000F404A02EB871920D99C
:1019D000224609EB42014C78202C12D0C4EBC40102
:1019E0000CEB81018B68C9681B1A091A23F07F432D
:1019F00021F07F419E429CBFB3F5000FB1F5000F6F
:101A0000E6D8202A05D03B4620210420FFF72AF8FB
:101A10000446AC4216D12E48002818BFAFF3008010
:101A200001F0F2FB03469AF8330020280DD0DAF8D3
:101A30000800991C081A0002C11700EB116000127F
:101A4000002802DD0020BDE8F09F202D14D02A469A
:101A500041461846FFF79CFA00281EBF8AF833500B
:101A60000220BDE8F09F3B462A4620210420FEF7D5
:101A7000F9FF0020BDE8F09FDAF82C00B0F1FF3F3D
:101A800005D002F03BF94FF0FF30CAF82C009AF86D
:101A9000300020B1052001F019FE8AF830B0042092
:101AA00001F014FE01F082FE20208AF8330009487C
:101AB0008068C0F800B00848C0F800B00120BDE858
:101AC000F09F00008C0E00208C0A00200C0E0020DD
:101AD000000000003C00002008050040064910B549
:101AE00091F83220202A1CBF887710BD40F29A312D
:101AF000702002F0BBFA00008C0E00202DE9F04FA0
:101B0000694E07468DB096F832008846202855D099
:101B100096F8320006F10804C0EBC000A6F5806913
:101B200009EB800A20208DF8200096F831000AAADF
:101B300000EB4000304409A990F82050F068029072
:101B40003068384401F0F6F9DAF80C000999652F8D
:101B5000084438D3554A0021D21B71EB010232D31D
:101B60002268821A22F07F42B2F5000F2BD820F0B3
:101B70007F406060304684F8108090F831000DF1AD
:101B8000200A202D1CBF4A4901EB801B50D000BF0A
:101B9000C5EBC50009EB80086168D8F8086008F15A
:101BA0000800711A0902CA1701EB126109122DD43B
:101BB000C08900283CD0E08948B139E040F6733153
:101BC000702002F053FA0DB00120BDE8F08F2068BC
:101BD0000C9002F08DF8B0F5C67F08BF0D200BD039
:101BE000A0F54070563808BF1C2005D0A0F5007045
:101BF0009F3814BF00203220411C0C98301A00027C
:101C0000C21700EB12600012884211DA8AF8005005
:101C100098F81810207C814205D8029860600DB0B9
:101C20000220BDE8F08F0BEB45004578202DAFD1A9
:101C3000052001F04BFD1C4C4FF0FF30606094F824
:101C400031309DF820202021202A03D00520FEF7E6
:101C500009FF04E003EB4300204490F8200094F8CF
:101C60003120134901EB821194F8322001EB42013B
:101C70004870206838442060FF2084F82900607E86
:101C8000012805D1E068401E20F07F4001F082FB72
:101C90009DF82000202803D00648407802F0BAFAC8
:101CA0000DB00020BDE8F08F8C0E00200040420FE8
:101CB0000C0E00203C000020064810B590F83210B1
:101CC00020291CBF007E10BD40F66D31702002F04F
:101CD000CDF900008C0E002070B5C0EBC0010948A2
:101CE00000EB810408492069A0FB0156A0680AF0B6
:101CF000F4FCE18A227D401C11440844401946F15D
:101D0000000170BD8C0A00200080841EF8B56F4D64
:101D1000012605F580646E4AE16A082872D2DFE880
:101D200000F004779FB1CF44B6BBB1F1FF3F04D1BF
:101D300002F000F801F068FAE062E08A10B102F007
:101D40001DF980B1FFF724FDFF2084F827006168AA
:101D5000B1F1FF3F03D0052001F002FC40B1607EED
:101D6000012810D109E040F66901702002F07EF9E7
:101D700040F66E01702002F079F9E068401E20F014
:101D80007F4001F007FB94F8320094F83210C0EB6A
:101D9000C00005EB80004068C1EBC10155F821206F
:101DA00001B00121BDE8F040104794F8300058B16F
:101DB000B1F1FF3F04D101F0BDFF01F025FAE0626F
:101DC000002084F83000F8BDFFF7E2FC4FF0FF3050
:101DD000606094F827008DF800009DF8000090B135
:101DE00094F8320094F83210C0EBC00005EB80008C
:101DF0004068C1EBC10155F8212001B00621BDE8C2
:101E0000F04010475CE040F68501702002F02EF9AA
:101E1000FFF7BEFC84F8266002F0B0F820B1E06A5B
:101E2000B0F1FF3F05D009E040F69301702002F0C9
:101E30001DF901F07FFF01F0E7F9E06294F832004C
:101E400094F83210C0EBC00005EB80004068C1EB95
:101E5000C10155F8212001B00021BDE8F040104734
:101E600001F05AFDE08A10B102F088F828B101F0C3
:101E700067FD002818BF6677F8BD40F69D01702009
:101E800002F0F4F81348066090680660F8BD107818
:101E9000BDE8F84002F0BEB9FFF77AFC94F83200D2
:101EA00094F83210C0EBC00005EB80004068C1EB35
:101EB000C10155F8212001B00521BDE8F0401047CF
:101EC0004FF40B61702002F0D1F800008C0A002062
:101ED0003C000020080500402DE9F34F8246EF4802
:101EE00095B00068EE4DC005C00D0ED0103840B260
:101EF0000028B8BF00F00F0000F1E020ACBF90F860
:101F0000000490F8140D40090DD016984FF0000B06
:101F10000078002818BF012818D040F23B714FF01C
:101F2000700002F0A3F895F832004FF0010B202862
:101F300007D01698007848B140F23771702002F04F
:101F400095F840F23471702002F090F8D54C24B12D
:101F5000002140F23E70AFF300800020CDE9100078
:101F6000D149CAEBCA0001EB80004FF00109009093
:101F700024B1002140F24970AFF30080B9F1000FA5
:101F80000AD000BF95F831604FF0000885F829802D
:101F9000BBF1000F07D038E0C448002818BFAFF3EA
:101FA000008062B6EEE73746012020EA0706C04807
:101FB000402200EB871100EB86100AF00BFD24B1E4
:101FC000002140F25E50AFF3008007EB470106EBC3
:101FD0004600294428440A8C028491F8221080F893
:101FE000221024B1002140F26250AFF3008024B1EE
:101FF000002140F25370AFF3008095F829008DF86E
:1020000008009DF808000028B2D124B1002140F258
:102010005D70AFF3008002A801F0FCF8DDE9020179
:10202000CDE90E01334609AA0EA81699FFF74EFA1C
:1020300024B1002140F26470AFF300809C4A0E99F5
:1020400002EB861709A817F81A20012A18BF022ADE
:1020500038D1099A0A9BA2EB010222F07F42A3EB3E
:102060000101CDF8448021F07F41022A64D3B2F50A
:10207000000F98BFB1F5000F5ED84FF0010814AB08
:1020800013AA3146FEF7E2FE00285DD09DF84C1001
:102090009DF8502033468A425AD00520FEF7E2FCD4
:1020A00007EB4A0148709DF84C0020281CBF07EB45
:1020B000400080F801A057D0324651465FF003003F
:1020C000FFF718FC24B1002140F26970AFF30080E3
:1020D0007848002818BFAFF30080EFF3108972B67C
:1020E00024B1002140F26F70AFF3008095F8290011
:1020F0008DF808009DF8080000287FF439AF24B15E
:10210000002140F27770AFF3008009AF009897E8A4
:102110000E1000F10807B8F1000F87E80E100D99B6
:10212000816151D024B1002140F28470AFF300806E
:10213000BBF1000F39D11FE0324651460420FFF7B2
:10214000D9FB4FF00108BDE7324651460420B7E7FE
:10215000202919BF07EB4100407806EB46002844D0
:1021600008BF90F820009BE706EB4601294481F860
:1021700020A0CDF844809FE7119810F0FF0F14D0F5
:1021800095F83200202810D124B1002140F2897046
:10219000AFF3008031460220FFF7DEFB109020B93C
:1021A00016980078E8B101282AD024B1002140F225
:1021B000A670AFF30080FF20BBF1000F18BF85F8B9
:1021C000290026D04FF0010824B1002140F2B77059
:1021D000AFF300801098384E022823D0012829D070
:1021E0002DE024B1002140F29170AFF3008095F80A
:1021F000312051460420FFF77DFB4FF00108E3E753
:10220000002C3FF4B5AE002140F29C70AFF300808B
:10221000AEE695F831200121914385F8311085F81B
:102220002900CFE7A8680E99401A0AF056FA71689B
:1022300021B904E071684FF0FF3001B18847B9F16E
:10224000000F24D024B1002140F2C770AFF300800A
:10225000B8F1000F11D095F8310000EB4000284490
:1022600090F82100202808D024B1002140F2CE703F
:10227000AFF30080707801F0CDFF24B1002140F26F
:10228000D370AFF3008017B04046BDE8F08F074829
:10229000002818BFAFF3008062B6D3E704ED00E07A
:1022A0008C0E0020000000008C0A002000000000BE
:1022B0000C0E0020000000003C0000202DE9F04F33
:1022C000064600788DB018B10DB00020BDE8F08F43
:1022D0008C480068C005C00D0ED0103840B20028F0
:1022E000B8BF00F00F0000F1E020ACBF90F8000490
:1022F00090F8140D4009E7D0834D844C4FF0010B4A
:10230000002725B1002140F2E550AFF3008094F89A
:1023100031A084F829704FF0000925B1002140F266
:10232000EA50AFF300807A482BEA0A0800EB8A11E2
:1023300000EB881040220AF04DFB25B1002140F24D
:102340005E50AFF300800AEB4A0108EB48002144DD
:1023500020440A8C028491F8221080F8221025B1C2
:10236000002140F26250AFF3008025B1002140F21D
:10237000EF50AFF3008008A800F04CFFDDE9080142
:10238000CDE90A0143466A4631460AA8FFF79EF89E
:1023900025B1002140F2F550AFF3008094F83200EF
:1023A00020281AD0E0680099091A0902CA1701EB1F
:1023B0001261091211D50099814202D90299491C72
:1023C0000291DDE90021891A20F07F42084420F0C3
:1023D0007F40CDE900204FF0010925B1002140F2F6
:1023E000FF50AFF3008000990A98019A091A101A59
:1023F00021F07F4120F07F40B1F5000F98BFB0F58C
:10240000000F09D84346694642480A9AFEF766FB20
:1024100059EA000029D142E00B98BDF80EA00290C5
:1024200009AA07A95046DDF8288000F083FD01F0D5
:1024300091FA00F063FD814694F8320020283BD0E9
:10244000E068401D20F07F400099814202D9029946
:10245000491C0291DDE90021891A0090084420F00E
:102460007F4001901F208DF80C0000980AF035F98C
:10247000411CBDF80E009DF80C2010440844C6E92C
:10248000040725B1002140F21A60AFF30080D6E9BD
:102490000410214A029BE3FB0210C6E9041094F8E1
:1024A00029008DF814009DF8140000287FF429AF4E
:1024B0000DB00120BDE8F08F08F10908BAF1000F56
:1024C00016D001F05BFD98B901F012FCB0F5C67FA3
:1024D00008BF0D200BD0A0F54070563808BF1C2057
:1024E00005D0A0F500709F3814BF384632208044D4
:1024F0000798814584BFA9EB0000804428F07F4005
:10250000A2E7000004ED00E0000000008C0E0020B7
:102510000C0E00200040420F0080841E2DE9F14F78
:10252000924D8CB095F83100002008900690012063
:102530008F4CA5F180094FF000080746079024B1A1
:10254000002140F2E470AFF30080079800283CD0EF
:1025500085F8298024B1002140F2E970AFF30080B2
:1025600095F831A0402227EA0A0609EB861009EB0C
:102570008A1183460AF02EFA24B1002140F25E50FF
:10258000AFF3008006EB46000AEB4A0128442944D9
:1025900000900A8C028491F8221080F8221024B155
:1025A000002140F26250AFF3008095F829008DF8C9
:1025B00008009DF8080078B1002C1CBF002140F2F3
:1025C000EF70BCD0AFF30080B9E76A48002818BFAD
:1025D000AFF3008062B6BBE724B1002140F2F37094
:1025E000AFF300800C981BF8100003287ED1009AEE
:1025F0000C9992F82000884214BF4FF0000A4FF067
:10260000010A02F1200C8346202209EB861303E025
:10261000024603EB42004078884202D020280AD0CC
:10262000F6E7202807D0834507D103EB4B0040781D
:102630008CF8000007E040460CE003EB400003EBA1
:1026400042014078487024B1002140F2C940AFF304
:1026500000803846C34610EA0A0F18BFBB46002860
:102660004ED024B100214FF4FF60AFF3008032461A
:1026700001200C99FFF73EF924B1002140F601003A
:10268000AFF300803C48002818BFAFF30080EFF3A1
:10269000108072B6079024B1002140F60600AFF317
:1026A000008095F829008DF808009DF8080038B1E1
:1026B000002C1CBF002140F60A003FF440AF81E728
:1026C000BBF1000F09D095F83200202805D1314622
:1026D0000220FFF741F90690F8B124B1002140F63D
:1026E0001E00AFF3008095F8310000E008E027EA13
:1026F000000085F83100FF2085F8290001200890AE
:1027000024B1002140F62700AFF3008006981B4E4D
:10271000022809D0012810D014E09CB1002140F615
:102720001900AFF30080ECE700F06EFDA968081A0D
:1027300009F0D3FF716821B904E071684FF0FF30F0
:1027400001B18847079848B124B1002140F63C0008
:10275000AFF3008008980DB0BDE8F08F0548002861
:1027600018BFAFF3008062B6EEE700008C0E0020C9
:102770000000000000000000000000003C000020FD
:10278000202824BF00207047C0EBC000034B43F853
:10279000201003EB80004260012070478C0A00206B
:1027A00010B5202811D20E4991F83130A1F18002E4
:1027B00002EB831C1CF810303BB191F8313002EB76
:1027C000831212F81020012A01D0002010BD91F8C8
:1027D000312001460020FFF78DF8012010BD0000D8
:1027E0008C0E00202DE9F84F864E804696F8310079
:1027F000A6F1800707EB801010F81800002871D0B0
:1028000096F83190804D25B1002140F6B930AFF3F4
:10281000008007EB891414F81800012818D0C0B202
:1028200004281CBF0528062861D02DB14FF00001F7
:1028300040F6C530AFF3008001F052FD25B1002114
:1028400040F6C930AFF3008014F818000128E6D133
:10285000012425B100214FF43D60AFF30080002C2E
:102860004BD0002086F8290025B1002140F6D53054
:10287000AFF3008096F831B0012020EA0B0907EB96
:102880008B1107EB891040220AF0A4F825B1002132
:1028900040F25E50AFF3008009EB490000EB060AFE
:1028A0000BEB4B003044018CAAF8201090F822006A
:1028B0008AF8220025B1002140F26250AFF3008077
:1028C00096F829008DF800009DF80000E0B1002D79
:1028D0001CBF002140F6DB30BBD000BFAFF300804F
:1028E000B7E7FFE74FF43B61702001F0BFFB4A46BA
:1028F00041460120FEF7FEFFA0E74448002818BF2C
:10290000AFF3008062B6ACE725B1002140F6DF30BE
:10291000AFF300809AF821300AF1210140461C46AD
:102920004FF0200B07EB89120AF1220A04E0A346BC
:1029300002EB4B0C9CF80140844202D0202C2BD09F
:10294000F5E7202C28D0A34204D102EB43004078C5
:10295000087005E002EB440002EB4B014078487040
:10296000BAF1000F11D025B1002140F2C140AFF300
:1029700000809AF80000A04207D125B1002140F262
:10298000C440AFF300808AF800B05DB1002140F28E
:10299000C940AFF3008000E025B1002140F6E330EC
:1029A000AFF300801A48002818BFAFF30080EFF3A0
:1029B000108472B696F829008DF800009DF800008A
:1029C00038B1002D1CBF002140F6E9303FF441AF83
:1029D00084E786F83190FF2086F8290054B1002D55
:1029E00008BFBDE8F88F002140F6F630AFF3008055
:1029F000BDE8F88F0548002818BFAFF3008062B625
:102A0000EDE700008C0E0020000000000000000038
:102A10000000000070B50D46064601F09DFA0F4813
:102A200090F831200024803800EB821010F8141048
:102A300029B1611CCCB2202CF8D3202070BD0848ED
:102A4000C4EBC40140F8216000EB810021464560E1
:102A50000120FEF74FFF204670BD00008C0E0020C5
:102A60008C0A00202DE9F04F83B000F0CDFB054625
:102A700000F09CFE844C6068B0F1FF3F1CBF4FF03B
:102A8000FF306060A07FDFF8049290B9D4E90210B3
:102A9000401A20F07F404FF40C7101F049FAE168D0
:102AA0000844281A0002C11700EB11600012C00F81
:102AB00012D0607E20B394F827008DF800009DF8B6
:102AC0000000E8B100F0CEFC94F82800F0B140F22C
:102AD000F531702001F0CAFA94F8320094F83210FF
:102AE000C0EBC00009EB80004068C1EBC10159F8A0
:102AF00021200821904740F2DD31702001F0B6FA24
:102B0000E81C20F07F4000F0A5FBDDE7012084F801
:102B1000280094F83200202821D094F83280202018
:102B200084F8320084F83300002084F8260084F80A
:102B30002700206000F014FF207794F8316006EB46
:102B40004600071997F82000202858D0C0EBC00095
:102B500009EB800999F81A00012805D04FE04FF4DD
:102B60007E71702001F082FAB9F816B001AA6946A8
:102B7000584600F0DFF900F0EDFE00F0BFF994F8E0
:102B80003200202804D0E068401D20F07F401DE086
:102B900005F1090ABBF1000F16D001F0EFF998B961
:102BA00001F0A6F8B0F5C67F08BF0D200BD0A0F548
:102BB0004070563808BF1C2005D0A0F500709F3823
:102BC00014BF0020322082442AF07F40D9F8082028
:102BD000811A0902CB1701EB1361091200290EDCDF
:102BE00009F10803824202D29968491E9960D3E92B
:102BF0000021891A1860084420F07F40586031464F
:102C00000120FEF7A9FE5FEA0009F8D0204800EB9A
:102C1000861010F81800022804D1324641460620DA
:102C2000FEF768FEFF2084F8290097F82100194E6E
:102C300020281CBF707801F0EDFA207F20B100F051
:102C40006BFE002020776077B9F1020F11D0B9F147
:102C5000010F1CBF03B0BDE8F08F4FF0FF3071686B
:102C6000002904BF03B0BDE8F08F03B0BDE8F04F0A
:102C70000847A068401B09F030FD71680029F4D1B5
:102C800003B0BDE8F08F00008C0E00208C0A0020FD
:102C90000C0E00203C00002070B5424C054682B06E
:102CA00094F83200202808D06068B0F1FF3F09D0C6
:102CB00040F6E421702001F0D9F940F6E3217020BC
:102CC00001F0D4F994F832003749C0EBC00001EBB1
:102CD0008006B06809F001FD0246F08A317D334B71
:102CE0000844401C11189A4217D8314A90421BDC04
:102CF000C2F1000C60451EDB56008E42DCBF01F5C0
:102D0000F701A1F1F85105DD0029BCBFA1F5F701DC
:102D100001F1F8514819994204D940F29E517020AE
:102D200001F0A4F9954204DD40F29F51702001F0BA
:102D30009DF9654504DA4FF4B461702001F096F90D
:102D40008642DCBF00F5F700A0F1F85005DD002851
:102D5000BCBFA0F5F70000F1F85001AA694600F0E9
:102D6000E9F89DF804000F288CBF0120002000998D
:102D7000084420F07F41616094F827008DF800003E
:102D80009DF80000002804BF02B070BD052000F0CF
:102D9000E7FB00281CBF02B070BD40F6EB2170209D
:102DA00001F064F98C0E00208C0A0020FF7F841E45
:102DB0000040420F70B51C4C202184F8201084F88C
:102DC000211084F82210002084F8310084F8321099
:102DD000421EC4E90002A07784F8260084F8270088
:102DE0002077607784F83310E26284F83000A4F131
:102DF00082011022887001F8040F521EFAD100F0EF
:102E0000B9FD0A4D012684F82860FF202870084883
:102E100001F0E2F9687001F04DFAA86000F034FDAD
:102E200084F8346070BD00008C0E00203C0000204F
:102E30001D18000000B583B0684600F0EBF900985B
:102E400009F04BFC019A034B0021E2FB030103B0A4
:102E500000BD00000080841E70B5064682B01D468D
:102E6000104609F03AFC0446684600F0D3F92049C0
:102E70000198A0FB0102301A44BFA0F5F70010F141
:102E8000F85004D540F60B41702001F0EFF888426D
:102E900004DB40F60C41702001F0E8F8154A211AD5
:102EA00000238A1A73F1000218D3DFF848C0021B0E
:102EB000B2EB0C0C73F1000310D30F4B8B423EBFEF
:102EC000C0F5902000F1F450011907D393420AD2C3
:102ED000C4F5902101F1F4510844414201F10F0081
:102EE00002B0281A70BD40F60531702001F0BEF81E
:102EF0000080841E0040420FFF7F841E410B48F279
:102F0000376251430A0C094B510202FB0302084885
:102F1000504300F586306E30400D5B4210FB03F3EA
:102F2000B2EB532F88BF491C08447047F7C2FFFF1C
:102F30006F0C0100430B48F2376C03FB0CF330B409
:102F40001B0CDFF844C05C0203FB0C030F48584322
:102F50004FEA505C04EB0C0043F609541CFB04F4EC
:102F600004F5807C43F60855A3EB5C2C2C440CF054
:102F7000FF0CB3EB542F84BF4FF0000C401C0860D3
:102F800082F800C030BC7047F7C2FFFF6F0C010031
:102F90002DE9F0413B4DD5F80403DFF8EC8010F447
:102FA000803F4FF400664FF0E0274FF0000419D047
:102FB00036480068B0B1C5F84041C7F88062D5F81E
:102FC0004005D8F80010401A20F07F40022802D3B4
:102FD000B0F5000F06D94FF48030C5F8080304207F
:102FE000FEF794FED5F8040310F4003F1AD02848E9
:102FF0000068B8B1C5F84441C7F880622548D0F8E8
:103000004005D8F80010401A20F07F40022802D373
:10301000B0F5000F06D94FF40030C5F808030520BD
:10302000FEF774FED5F8040310F4802F1AD01A4866
:103030000068B8B1C5F84841C7F880621748D0F8B1
:103040004005D8F80010401A20F07F40022802D333
:10305000B0F5000F06D94FF48020C5F8080306200C
:10306000FEF754FED5F80401002808BFBDE8F08142
:10307000C5F80441C7F880620948C168491CC160AD
:10308000BDE8F08100B0004004B5004040B1004010
:1030900044B1004004B0004048B1004008B00040D6
:1030A000480000202DE9F041384D2878042868D0E8
:1030B000A81C0122017859B1012908BF6A7002D009
:1030C0006978002958D002210170407800F0FEFA9A
:1030D0002F4CD4F804034FF0000810F4002F4FF4E5
:1030E00080774FF0E0260AD02A48006838B10320E4
:1030F00000F0ECFAC6F880720320FEF707FED4F861
:10310000040310F4802F0AD02348006838B102204D
:1031100000F0DCFAC6F880720220FEF7F7FDD4F862
:10312000040310F4003F0AD01C48006838B10120A5
:1031300000F0CCFAC6F880720120FEF7E7FDD4F863
:10314000040310F4803F08BFBDE8F0811448006814
:10315000002808BFBDE8F081002000F0B7FAC6F8EB
:10316000807204202870C5F80480C4F80082BDE88D
:10317000F0410020FEF7CABD40F2A3416C2000F0F0
:1031800075FFBDE8F0410720FEF7C0BD48000020F4
:10319000008000404C810040488100404481004054
:1031A00040810040012211024FF0E0230020C3F8CB
:1031B000801103F5C073BFF34F8FBFF36F8FC3F858
:1031C00000110E4941F8042F431EC1F80433C1F821
:1031D0003C05C1F83C010A4BC3F84005C1F8400169
:1031E0001B1DC3F84005C1F844011B1DC3F8400571
:1031F000C1F84801CA600349487070470080004028
:10320000048000404800002001480068704700002A
:1032100004B5004030B4EFF3108C72B600250B4BB0
:103220000B4A00BFD3F80415D3F804412CB1D16880
:10323000491CD160C3F80451F4E7D268BCF1000F17
:1032400000D162B6C0E9001230BC704700B0004047
:10325000480000202DE9F047464E0546B71E33785A
:10326000B968012B04BFA942BDE8F0874FF0404088
:10327000414A1060424A4148C2F8080302F1040C76
:103280004FF00004002B62D03E48C2F84803CCF84F
:103290004045C2F8444100BFD2F848014FF0E02950
:1032A0004FF00108002801BFD2F8040100284FF4B4
:1032B0000060C9F880024FF48030C2F80803C2F8F9
:1032C0004803C2F840413048D0F800C0A5EB0C0CD0
:1032D0002CF07F4CBCF1020F44D3BCF5000F41D859
:1032E000C2F840554FF4803CC2F844C32BB1026889
:1032F0008A1A22F07F42022AF9D3C7F804803C7070
:10330000FFF750FF2148D0F8041564F30101C0F81D
:103310000415D0F80825022161F30102C0F8082540
:103320000421C0F81015C0F80C807968C0F80012AC
:103330008015C9F88002C9F800011549C005086068
:103340000420BD60707086F80080BDE8F087C2F888
:103350004803C2F84045C2F84041CCF84045C2F8A5
:10336000444199E70020C2F8400540F297216C20C3
:1033700000F07CFE4A00002008F50140FDFFFBFF45
:1033800000B00040FDFFFAFF04B50040008000409F
:1033900004F5014070B52A4CA168814214BF012296
:1033A0000022DFF8A0C09CF80050022D02D0002AB5
:1033B00034D002E0002A08BF70BD62789AB3224B75
:1033C0004FF080421A60214B9213C3F80823C3F8D0
:1033D00048230022C3F840211D4A1668861B26F0A8
:1033E0007F46022E24D3B6F5000F21D8C3F840053E
:1033F0004FF48036C3F844632DB11368CB1A23F021
:103400007F43022BF9D3134B02214A071A60A060B5
:1034100004208CF801008CF8001070BD40F2A5214A
:103420006C2000F023FE40F2A9216C2000F01EFE6B
:103430000020C3F8400540F2B5216C2000F016FED4
:10344000480000204A00002008F5014000B000407C
:1034500004B5004004F50140014880687047000051
:10346000480000202DE9F0413648354AC0F80823CD
:10347000DFF8D4C0031D00219CF8004084B1334A1A
:10348000C0F84823C3F84015C0F84411D0F84821CB
:103490000123002A04BFD0F80401002811D10AE05A
:1034A000C0F84823C0F84015C0F84011C3F84015D3
:1034B000C0F84411EAE74FF0E0224FF40060C2F890
:1034C0008002022C04D040F2C1216C2000F0CEFD1D
:1034D0001F4E30681F4CC01C20F07F40A2681E4D5C
:1034E00090420BD03768D71B27F07F47042F05D3B6
:1034F000B7F5000F02D8FFF7ADFE1BE03068101AD9
:1035000020F07F40022813D3B0F5000F10D8134AE3
:103510004FF080401060636021706B60EB60400092
:10352000111F086004208CF801008CF8003001E0C5
:10353000636021706068C5F80002BDE8F08100009A
:10354000FDFFFBFF00B000404A000020FDFFFAFF36
:1035500004B50040480000200080004008F501400C
:103560002DE9F041544A0025012492F800C0537817
:103570004FF4A07607287DD2DFE800F004040404AD
:10358000585858004D4A9768B7F1807F04BF527869
:10359000002A03D0BCF1020F05D026E040F25131E1
:1035A0006C2000F063FD1A1FD2B206EB820202F11A
:1035B000804606F530460022BCF1010F03D0BCF175
:1035C000020F08D00EE0042B24BF3768002F08BF7D
:1035D0004FF0004206E0042B24BF3768002F08BFDD
:1035E00042F0804212F0804FE5D1DFF8D4C000F104
:1035F000100204FA02F2CCF808234FF0400303EB68
:103600008003DBB263441C600CEB8000D0F84035D3
:10361000A1EB030323F07F43032B26BFC0F8401523
:10362000CCF80423C0F8405537D23CE0BCF1000F81
:1036300006D0834204D140F271316C2000F016FDB7
:10364000021FD3B2032B04D34FF4E6716C2000F0B9
:103650000DFDDFF870C003F1100204FA02F2CCF89D
:103660000823CCF8482306EB83034CF80350164B91
:103670001B6800E01AE0001FCB1A23F07F43C0B2A2
:103680000CEB8000022B0BD3B3F5000F08D8C0F869
:103690004015CCF80423CCF844230120BDE8F08188
:1036A0000021C0F840150020BDE8F08140F27531DE
:1036B0006C2000F0DBFC00004A00002048000020E5
:1036C0000080004000B0004004B500402DE9F84300
:1036D000012600274FF4A078072851D2DFE800F038
:1036E000040404041919190000F1100106FA01F28A
:1036F0002649C1F8082301EB80030022C3F84025C6
:1037000008EB80028F50224951F820000090BDE85C
:10371000F883204D011FCCB2297879B16A788242B2
:103720000CD11D4A4FF040401060012908BFFFF73F
:1037300039FD2F7019494FF080708860184904F1E5
:10374000100006FA00F0C1F80803C1F84803A00011
:103750000844D0F84005134A1268801A20F07F40D0
:10376000022807D301EB84020020C2F8400508EBD1
:1037700084000F500C4850F824000090BDE8F883F6
:1037800040F2F9316C2000F071FC00000080004034
:10379000408100404A00002008F501404800002018
:1037A00000B0004004B5004040B100402548244A24
:1037B000C0F808232449031D91F800C00021BCF182
:1037C000000F10D0214AC0F84823C3F84015C0F8B4
:1037D000441100BFD0F84821002A04BFD0F80401EA
:1037E000002811D10AE0C0F84823C0F84015C0F8FD
:1037F0004011C3F84015C0F84411EBE74FF0E02248
:103800004FF40060C2F8800211484FF0FF32C0F858
:103810000823C0F84015C0F8401100F10402C2F8B6
:103820004015C0F8441102F10402C2F84015C0F876
:10383000481102F10402C2F84015C0F84C1170475B
:10384000FDFFFBFF00B000404A000020FDFFFAFF33
:103850000080004010B507280DD2DFE800F0040416
:10386000040406060600064902E0001F0549C0B22E
:1038700001EB800010BD40F299316C2000F0F6FBA6
:103880004081004040B1004070B51F480024042131
:103890000470801E01708905C4608160FFF782FC9E
:1038A00001254FF0E02CEB02CCF88031BFF34F8FB5
:1038B000BFF36F8FCCF8803214484560856014499F
:1038C0000A68002AFCD1511EC0F80813C0F848133A
:1038D000C0F84045C0F840410E49C1F84045C0F825
:1038E0004441091DC1F84045C0F84841C0F80441B1
:1038F000CCF8003105604FF48271C0F84413022106
:10390000C0F8041370BD00004A00002000B0004061
:1039100004B5004004B00040084890F900000028B9
:10392000B8BF704700F01F01012202FA01F14009FF
:10393000800000F1E020C0F8001270476003002012
:103940000348007803280CBF0120002070470000C6
:103950004C03002001484088704700004C030020C1
:1039600003480078022816BF032801200020704772
:103970004C03002002480021017041807047000084
:103980004C0300202DE9F041164C607A002827D026
:103990004FF480718D05284608F0CAFE80464FF42A
:1039A0008271284608F0C4FE00260746B8F1000FD1
:1039B00009D00120C5F80803207920B12671E069FB
:1039C00008B18047E66137B1C5F804610220C5F847
:1039D000080300F06BFA4046BDE8F04100F058B82B
:1039E000BDE8F0815800002010B508F04BFF30B959
:1039F00008F069FF18B908F09CFF002802D00249BE
:103A00000220086010BD0000340C004070B500F0CA
:103A100091F900F0B3FA094C4FF0804530B1FFF74F
:103A2000E3FF012028610420A07204E00320A072BB
:103A30000120C5F804030020E07170BD580000208B
:103A400070B5124CA079E0B1E179401E814218DADC
:103A500000F094FA054600F07DFBA179012902D916
:103A6000E179491CE1710DB1616900E02169411AF8
:103A7000022902DA11F1020F07DC0DB1606100E0EA
:103A80002061BDE87040FFF7C1BF70BD5800002045
:103A90002DE9F04706464FF080454FF486712846E1
:103AA00008F046FE80464FF48871284608F040FE34
:103AB000274C8246277804F1080008F0ADFE10B1CB
:103AC0004FF4DB7116E04FF0010946B1A07A0328EC
:103AD00005D10420A072FFF787FFC5F810900026DB
:103AE000B8F1000F18D0C5F80C61A07A042804D0F2
:103AF0004FF4E4716D2000F0B9FA08F0C3FE28B964
:103B000008F0E1FE10B908F014FF08B11148066092
:103B10000220A07200F0F2F8BAF1000F08D0C5F848
:103B20001061A07A022801D1FFF78AFFC5F814902E
:103B30003FB12670A07A022801D1FFF767FF00F09D
:103B4000DDF8BDE8F0470248083008F07CBE000010
:103B500058000020340C00402DE9F0475F4C00274E
:103B60000646A761427881780078E0726271A1719F
:103B7000E7714FF001084FF08045052825D2DFE8B6
:103B800000F0100306202200C4F8188009E000F0BD
:103B9000D1F80121284608F0D0FD0028F9D00220F4
:103BA000A06108F0F6FDB0B100F002FA217E01F04C
:103BB000030188420FD1B07950B10220C5F8040347
:103BC00070E04748ECE74748EAE740F237314DE01C
:103BD00000F0C2F966E0C5F80C804FF4827AC5F8AF
:103BE0000471A069C5F8180508F038FE40B908F05E
:103BF0003FFE28B908F053FE10B908F064FE38B152
:103C00004FF08050D0F844023749C0F3423008608A
:103C100008F024FE40B908F02BFE28B908F03FFE5A
:103C200010B908F050FE18B12F491031C1F80080CA
:103C3000C5F808800220C5F80403B07990BBD5F818
:103C4000040310F0020F0FD0DFF8A090D9F8001095
:103C5000C94341F3001101F10108D9F8001041F006
:103C60001001C9F8001007E04FF43E716D2000F01C
:103C7000FDF900BF00F034FB5146284608F058FD1E
:103C80000028F7D000F068F9B8F1000F05D1D9F895
:103C9000001021F01001C9F800100220C5F8080337
:103CA000C5F80471A07970B1307860B900F066F998
:103CB000064600F04FFA6FF0004116B1C4E9041057
:103CC00001E0C4E904010121284608F036FD08B1ED
:103CD00000F04EF9A772BDE8F08700005800002000
:103CE00001000200010003003C05004010ED00E06F
:103CF0000148C089704700005800002010B5EFF35C
:103D0000108472B60A48417829B14178491E417041
:103D1000417829B108E040F219116D2000F0A6F9B0
:103D2000807808B900F038F9002C00D162B610BDD7
:103D30005800002010B5EFF3108472B606484178A1
:103D4000491C41704078012801D108F00DFD002C7C
:103D500000D162B610BD000058000020054810B523
:103D6000C17821B100210171C170FFF7C7FF0020A8
:103D700010BD00005800002070B50C4CE17861B90E
:103D80000125E570E061FFF7D5FF00F0F7F830B1ED
:103D9000E06910B180470020E061002070BD4FF065
:103DA00080402571C0F80453F7E700005800002058
:103DB0002DE9F04105006FF015003FD02978042966
:103DC0003CD8002969783BD0002937D1A97800294F
:103DD00034D1002008F09BFC002008F08BFC4FF051
:103DE00080484FF0FF31C8F808130026C8F800617A
:103DF000C8F80461C8F80C61C8F81061144C66700A
:103E0000A888A08108F0A7FC012708B1E7706770B7
:103E10000121404608F091FC08B100F0A9F840F2F9
:103E2000F550E0812846FFF797FE6772002008F002
:103E300061FC4FF0E0213046C1F80071BDE8F0812F
:103E40000029FBD02029F9D8A9782129C1D9F5E783
:103E50005800002001488089704700005800002069
:103E600010B50D4808F0D8FC0B49083948B10120BD
:103E700008704FF0E021C1F80002BDE81040FFF7E4
:103E800059BF887A022801D1FFF7C0FDBDE8104074
:103E9000014808F0D8BC0000600000200248807A89
:103EA000002800D00120704758000020F8B51F4DB1
:103EB000E87A00280FD1287E00F0030008F059FCB2
:103EC000002808D0EFF3108172B6FFF7E7FF18B1B2
:103ED000002900D162B6F8BD0126AE7201B962B602
:103EE00018204FF08044C4F80803A6614FF42070F6
:103EF000ADF80000BDF80000411EADF80010F9D289
:103F00000027C4F80C71C4F810710848083008F094
:103F100096FC2F70FFF77AFD6661687900F07F00EC
:103F2000C4F838051820C4F80403F8BD5800002070
:103F3000024610B5002000290AD0002A08D0A2FBB2
:103F40000101401E034A41F1FF3108F0FCFC401C16
:103F500010BD000040420F0010B5044C207E00F060
:103F6000030008F006FC0028F8D010BD580000201F
:103F70000149012008707047610300204FF0804024
:103F8000D0F8000118B903480078002800D00120BB
:103F900070470000610300204FF080400121416024
:103FA0000021C0F800110148017070476103002032
:103FB0000248006800F00300704700001C04004045
:103FC00010B531B1012907D040F2023105A000F04F
:103FD00021F8D0F8140401E0D0F8080400F0010042
:103FE00010BD00006E72665F636C6F636B2E6800BD
:103FF000BFF34F8F05480168054A01F4E0611143A2
:104000000160BFF34F8F00BFFDE700000CED00E043
:104010000400FA0572B6034A526802B19047FFF7EE
:10402000E7FF000078000020064810B5002101607D
:1040300001210160084608F0C3FBBDE810400120E3
:1040400008F0B1BBFC1F0040074810B501214160DA
:10405000891EC0F808130C2008F0B2FBBDE8104020
:104060000C2008F0A0BB000000C000400EB572B6E6
:104070000F4A5568D5B1002203466E460A2403E074
:10408000B0FBF4F0521CD2B20028F9D1B05409E0D0
:10409000B3FBF4F004FB1030B3FBF4F3521ED2B2C6
:1040A0003030B054002AF3D13046A847FFF7A0FFC4
:1040B000780000202DE9F041184C0646174660783C
:1040C0000D4618B14FF0FF30BDE8F081FCF77AFBE8
:1040D00006B9134E67602570FFF7A6FFFFF7B4FF20
:1040E0003046FFF765FE0600EED1FEF763FEFFF7F0
:1040F000DDFE08F04CFA284608F055FB0120002DA3
:1041000009DB05F01F0100FA01F16A09920002F1D2
:10411000E022C2F8001160703046D5E77800002038
:10412000E2C7000001484078704700007800002096
:10413000074890F90000002809DB00F01F02012168
:1041400091404009800000F1E020C0F80012704763
:10415000780000202DE9F04101264FF0E0223103E4
:104160004FF000084046C2F88011BFF34F8FBFF3F5
:104170006F8F164CC4F800010C2008F040FB144D62
:104180002868C04340F30017286840F010002860FA
:10419000C4F8046326607F1C02E000BF00F0A0F8B2
:1041A000D4F800010028F9D01FB9286820F01000C9
:1041B0002860084805686660C4F80863C4F8008190
:1041C0000C2008F01CFB2846BDE8F08100C0004030
:1041D00010ED00E008C5004010B5024605200C496E
:1041E00004E000BF01EBC0031B7933B1401EC0B235
:1041F000F8D248216920FFF739FF41F8302001EB60
:10420000C00100224A718A7101220A7110BD0000AA
:10421000C40E002010B5052801D3582106E00A4934
:1042200001EBC0000179012903D059216920FFF772
:104230001DFF41798279491CC9B28A4200D041717F
:10424000BDE81040FFF774BFC40E002010B505286C
:1042500003D34F216920FFF709FF034A002102EB36
:10426000C000017110BD0000C40E002070B505250E
:104270000E4E0F4C16E0217806EBC1000279012AA0
:1042800008D1427983799A4204D04279827156F8F2
:10429000310080472078401CC0B22070052801D32F
:1042A000002020706D1EEDB2E5D270BDC40E00205E
:1042B0006203002000B508F0D1FA40B908F0D8FA3E
:1042C00028B908F0ECFA10B908F0FDFA08B1024874
:1042D00000BD024800BD00000C05004000E70140A1
:1042E00010B508F0F0FA30B3EFF31080C8B1002138
:1042F00072B6124802680368C2F3001243F010035A
:1043000003604FF0E023D3F80042D3F804321C439B
:1043100000D040BF20BF00BF00BF00BF00BF12B130
:1043200005E00121E4E7026822F0100202600029A2
:1043300000D062B610BD20BF10BD000010ED00E03F
:10434000014901208870704780000020A1CB000047
:10435000D9CB0000C3CB0000B1CB0000BDCB000027
:10436000ABCB00009FCB00009DCB0000D5CB000065
:10437000C9CB0000B7CB0000A5CB000097CB000055
:104380008FCB000093CB000089CB00000148006870
:104390000068004794000020014800684069004719
:1043A00094000020014A1268D2681047940000204F
:1043B00001490968C96A084794000020014800685B
:1043C0000069004794000020014A12689268104773
:1043D0009400002001490968496A084794000020B8
:1043E00001490968896A08479400002030B4034CE9
:1043F00024686468A44630BC604700009400002034
:104400000148007870470000630300201FB5144C7A
:10441000207A8DF80100E0798DF80000A079ADF8E0
:1044200004006079ADF80200684606F03FF808B174
:10443000A72110E0E068029002A806F04DF808B14C
:10444000AB2108E007480068039003A80BF021FFA8
:10445000002803D0AF21032000F0DCF81FBD0000CE
:10446000EC0E00201C47000010B528B114220449AE
:1044700008F0B0FA002010BD6FF0150010BD00006C
:104480004047000070B56FF02C03B8BB1E4C60783D
:1044900008B1981170BD01B36FF01505AAB11B48A2
:1044A000891E06292BD2DFE801F0030616192A1C03
:1044B0001178417017E0917839B1D17829B111782C
:1044C0001B2902D351781B2901D2284670BD1168DF
:1044D000C0F8051007E01168C16004E01178817030
:1044E00001E01188418201220849002008F091FB77
:1044F000B0F5803F05DB6FF00B0070BDFFE718469D
:10450000FBE70121A170F8E798000020EC0E0020E5
:1045100010B5074C607820B106F0B6FA2078FFF7A6
:1045200095FE00F087FD00F05FFE0020607010BD7A
:104530009800002070B50C46050002D00CB1600751
:1045400002D06FF0150070BD00F020F9A8B1284628
:10455000FFF742FE0A4D00220A492870204608F063
:1045600058FB0CF0BAFA0021287806F07DFAFFF724
:104570004DFF01206870002070BD4FF0FF3070BD0E
:1045800098000020EC0E002030B589B004000CD05B
:10459000FFF7C8FD4FF0FF3520B1FFF75BFCB0F52A
:1045A000FA7F05D9284609B030BD6FF01500FAE74B
:1045B000134D14486C6000F00BFA00206870A8706E
:1045C00001462022684608F07FFA20220E496846FC
:1045D00008F000FA202269460C4808F0FBF9EFF3D6
:1045E000108472B600F034FD094800F009FE18B1DD
:1045F000C521032000F00EF804B962B60020D2E70E
:10460000980000200D44000020470000EC0E002020
:10461000B94700000EB572B6154A5568DDB10022E3
:1046200003466E460A2403E0B0FBF4F0521CD2B2FB
:104630000028F9D1B0540AE0D8B2B0FBF4F7B3FBCC
:10464000F4F304FB1700521ED2B23030B054002AEB
:10465000F2D13046A847BFF34F8F06480168064A9B
:1046600001F4E06111430160BFF34F8F00BFFDE72C
:10467000980000200CED00E00400FA05064810B593
:1046800081784078014302D04FF0FF3010BD06F032
:1046900009FA002010BD000098000020064810B55F
:1046A00081784078014302D04FF0FF3010BD05F013
:1046B0005FFF002010BD000098000020064810B5E4
:1046C00081784078014302D04FF0FF3010BD0BF0ED
:1046D0007FFF002010BD000098000020064810B5A4
:1046E00081784078014302D04FF0FF3010BD06F0D2
:1046F000EBF9002010BD000098000020064810B51E
:1047000081784078014302D04FF0FF3010BD0BF0AC
:104710006FFF002010BD0000980000200100000085
:1047200000010100001B1B03020000004C1D0000E3
:1047300000001F000000000000000000000000005A
:10474000B321F58F99DFC515AC0A572C03BED6DC13
:1047500093ADB85E054A10B5526812B1BDE810407D
:10476000104792210420FFF755FF00000C0F002096
:10477000054A10B5926812B1BDE810401047982163
:104780000420FFF747FF00000C0F002005480168D8
:1047900029B1416819B1806808B101207047002033
:1047A000704700000C0F002002490DC881E80D0081
:1047B000002070470C0F0020F8B5124C0026256829
:1047C00011E00098022802D003280CD106E02068EE
:1047D00010B10020266005E028210CE0206868B1B7
:1047E00001202660A847684600F0D0FC0028E8D0E9
:1047F000052805D035210420FFF70CFF2D21FAE70D
:10480000F8BD0000A00000202DE9FC41254E054622
:10481000001D06F144073060387858B1BA783C463C
:10482000791C2846921C08F0D5F80020207004203E
:10483000BDE8FC811B4801F07DFE0446022804D03F
:10484000042C07D0082C27D02AE01649284608F067
:1048500080FA25E03078082804D105213E2008F0B0
:104860004AFA60B10F49284608F0D8FA0028D3D098
:10487000A978287808F03FFA0028CDD010E0B08859
:10488000ADF8000001A9684608F0B3FD0028C3D0C8
:10489000A7210820FFF7BEFE0249284608F087FA44
:1048A0002046C5E7180F002070B50A7882703AB329
:1048B000012A25D81323037000230AE001EB4304E7
:1048C00000EB4305A678EE706488240A5B1C2C710B
:1048D000DBB29342F2D300230BE000BF01EB4305B0
:1048E00000EB43042E796671AD882D0A5B1CA5711F
:1048F000DBB29342F2D3012101EB8200C0B270BD62
:10490000002070BD402803D2401EC1B2054805E01A
:10491000FF2805D04038C1B20248083008F060BC1A
:1049200001207047AC000020401EC1B2014808F0D1
:1049300057BC0000BC00002010B5074A0168064BB8
:1049400091614068D0611C681832A14311605968B8
:104950008843506010BD0000A4000020064A016892
:1049600091604068D060083241F48C2111600349A5
:104970000843506070470000A4000020F807400280
:10498000024902680A61406848617047A40000203B
:1049900007484FF0FF3100220160C90C416000F16F
:1049A00008011F200A604A600831C1E9000270470F
:1049B000AC00002010B5FFF7EBFF0BF082FD0446C2
:1049C0000248006800B18047204610BDC4000020A6
:1049D0000149086070470000C400002002210180E6
:1049E000418000210171B32141714FF22151C180F9
:1049F00001498160002070478F99DFC510B50228FA
:104A000004D340F203211720FFF704FE0149085C9C
:104A100010BD000060100020F8B5050000950DD015
:104A20000026087849780446A14200D90C46AA0716
:104A300006D04FF4E5711720FFF7ECFD0126F0E7F3
:104A4000124F387079703146684600F0D3F8002173
:104A50000B460098C01C20F00300009066B907EBDD
:104A60008102D060002005E0D2F80CC04CF8203064
:104A7000401CC0B2A042F7D30098491C00EB840050
:104A8000C9B200900229E4D3401BF8BD6010002099
:104A900070B50446857900F0E9F80C4AE17902EB3B
:104AA00085020EE0D36853F8213043B1481CE07111
:104AB000A180D06850F821002060002070BD491C02
:104AC000C9B28142EED3E171052070BD60100020B3
:104AD000F0B421B1012902D0F0BC002070470F4A88
:104AE00000252B464FF6FF7402EB8106575C0AE067
:104AF0005A19D6F80CC092B25CF822C0BCF1000F73
:104B000004D05B1C9BB29F42F2D822460280104622
:104B1000A242E1D0F0BC00F035B8000060100020E7
:104B20002DE9F0410646A0F57F400C4643F202070E
:104B3000FF3820D0022C02D30720BDE8F081304698
:104B400000F048F8050016D00C48294650F82420FB
:104B5000304690470A48002100EB8407F86840F887
:104B60002610204600F078F802462946786808F0BA
:104B7000CEFE0020E1E73846DFE70000844C00006D
:104B80006010002070B50E46054608F0FAFE58B1D8
:104B90000F4800EB8604E06850F8250038B14FF468
:104BA000C5711720FFF736FD40F28911F9E76068FB
:104BB00000280BD0304600F04FF80146606808F03E
:104BC0004EFE002802D0E16841F8250070BD0000CB
:104BD0006010002070B50C46054608F0D2FE002893
:104BE00005D0034800EB8400C06850F8250070BD74
:104BF000601000202DE9F843164E88460546002433
:104C00002868C01C20F003002860204600F024F82B
:104C1000315D4843B8F1000F01D0002200E02A685E
:104C20000146009232B100274FEA0D0008F048FE1D
:104C30001FB106E001270020F8E706EB8401009A87
:104C40004A602968641C0844E4B22860022CD7D367
:104C5000BDE8F88360100020034931F810004FF6DA
:104C6000FC71C01C08407047804C00000349087864
:104C70004978884200D20846704700006010002042
:104C8000F802180161F600000BEC00002DE9FF4F5F
:104C9000244C064681B020689A46934658B1017A62
:104CA000B14203D9406850F8260040B143F20200F7
:104CB00005B0BDE8F08FA5211820FFF7ABFC194621
:104CC000029808F081FE804658460E9908F072FE60
:104CD000054608EB0500001D87B22068A14639464D
:104CE000006808F0BCFD04001AD0678025802946C2
:104CF000201D0E9D07465A460923009508F029FD00
:104D00002088414638440A23029ACDF800A008F0D2
:104D100020FDD9F80000406840F826400020C7E791
:104D20000420C5E7C800002070B5144C23688BB17F
:104D3000197A814212D95A6852F8201071B10025AF
:104D400042F820504A88186808F0E1FD21680020E8
:104D50000A7A0CE0C6211820FFF75CFC43F202003F
:104D600070BD4B6853F8203033B9401CC0B282424A
:104D7000F7D8086808F0C0FD002070BDC80000200A
:104D80002DE9F0410D46040090464FF0000606D094
:104D90000027A00705D086211820FFF73BFC01273C
:104DA000F7E7CDB11146002008F08AFD0C3000EB8A
:104DB00085068FB90A4F04F10C00AA003C602572E9
:104DC000606000EB850020600021606807F07CFED9
:104DD0004146386808F074FD3046BDE8F0810000B7
:104DE000C800002070B5084D286800280AD00024AB
:104DF00004E02046FFF798FF641CE4B22868007ABC
:104E0000A042F6D870BD0000C8000020094910B5C6
:104E100002460968002049B10B7A934205D94968D6
:104E200051F82210002900D0081D10BDEC211820D7
:104E3000FFF7F0FBC80000200A4910B502460968D8
:104E4000002059B10B7A934207D9496851F82210D2
:104E5000002902D031F8040B084410BDFA211820B3
:104E6000FFF7D8FBC800002070B51E4B456804460C
:104E70000022A1B101206070588881085FF0000015
:104E800004EB400304EB80061A83198400FB0153F2
:104E900073602318401C1A750428F1D370BD62702A
:104EA0005FF0000004EB40010A830A8404EB8001F8
:104EB0004A602118401C0A750428F3D35888B0F5BD
:104EC000FF7F01D2460800E0FF2608F0F1FD656093
:104ED00020842918A1606684E560A0842161E684AD
:104EE00070BD0000CC0000202DE9F04158B1002534
:104EF0001144244ECCB200273470810705D04E21D6
:104F00000920FFF787FB0125F2E71F2B04D84FF696
:104F1000FF7101EA830109E05900FF2B0CD903F16D
:104F2000FF02B2EB430F00D2114689B24FF6FC727A
:104F3000C91C114035B107E07C22B2EB430FF4D31A
:104F40007C21F2E77060718004EB840207EBC203FE
:104F5000002276684FF0010C0DE04DB902EB82079C
:104F600000EB030E06F837C006EBC707C7F804E0EE
:104F7000521C0B44D2B2A242EFD3DB1D23F0070038
:104F8000BDE8F081CC00002070B5104A00205168C7
:104F9000127814E000EB800311F833306BB100EBB2
:104FA000800011EBC0040CD00025A5700121204623
:104FB000FFF75AFF2570204670BD401CC0B29042DA
:104FC000E8D3A9210920FFF725FB0000CC00002031
:104FD000044810B54088840808F06AFD844200D374
:104FE000204610BDCC00002030B50D49012048609E
:104FF000821EC1F808230B4988600023C1F80032E3
:10500000C1F80823084C2360251D28608860C1F87A
:1050100008232360286006490448086030BD00006A
:1050200000E0004000F0004000F500400000F63FC6
:1050300008F5014010B5FFF7D7FF08F010FE03494F
:105040000148086010BD00000000F63F08F501406F
:1050500010B5FFF7C9FF08F002FE00F087F8054918
:105060000348086000F0B8F8BDE8104000F0DCB874
:105070000000F63F08F501402DE9F84F8246384818
:1050800007F0CAFBDFF8D8B028B101260BF1010008
:10509000FF21017000E000264FF48075314C4FF085
:1050A00000082F1D01216160C4F80081C4F804814B
:1050B000C4F804A52160DFF8B0901CE0D9F8000026
:1050C000C00618D50E2008F0D9FDEFF3108000902F
:1050D00072B603212046C4F80413294608F0DBFD0C
:1050E00030B93946204608F0D6FD08B9FFF7F8F880
:1050F000009800B962B62946204608F0CCFD28B9D0
:105100003946204608F0C7FD0028D7D0394620464A
:1051100008F0C1FD0028C5D106BB9BF801108DF831
:105120000010009900919DF8001009B1012500E0E0
:1051300000250BF1010080F800800320C4F808036B
:10514000C4F80481C4F800810E2008F097FD0448DB
:1051500007F079FB15B11120BDE8F88F0020FBE7BF
:105160006403002000E0004010ED00E010B50648A8
:1051700007F065FB18B127211D20FFF74BFA024805
:105180000021417010BD00006403002070B511497A
:105190000A68EAB100231D4601244A68521C4A608D
:1051A000092A00D34D600E7904FA06F20E68164201
:1051B0000BD0EFF3108372B60C6894430C6003B904
:1051C00062B649680160002070BD5B1C092BE4D306
:1051D000052070BDD400002002480021016041601C
:1051E00070470000D400002010B5044C2078FF2840
:1051F00003D0FFF72BF8FF20207010BD0000002027
:1052000010B5084C617809B10F2010BDFEF7E4FF1E
:105210002070FF2801D0002010BD73211F20FFF750
:10522000F9F9000000000020014900204870704793
:10523000000000200648074A818C5288914204D120
:1052400090F8220008B1002070470120704700004C
:1052500010110020500300200149488070470000D1
:10526000500300200848094A818C5288914209D194
:105270004FF6FF71818410F8221F19B100210170CF
:1052800001207047002070471011002050030020BB
:10529000074810F8221F012907D001210170054895
:1052A000034900888884012070470020704700006F
:1052B00010110020500300200649074B8A8C5B88A0
:1052C0009A4205D191F8222012B101600120704765
:1052D00000207047101100205003002009498A8CDB
:1052E000A2F57F43FF3B02D00021016007E091F867
:1052F00022200449012A02D00160012070470020C9
:10530000704700001011002001490880704700001C
:10531000500300200549002081F822004FF6FF705D
:1053200088840349088048807047000010110020DD
:105330005003002005498A8C824205D1002081F863
:1053400022004FF6FF708884704700001011002083
:105350000A4A10B1012807D00EE0507860B1D2F8A7
:1053600002000860D08804E0107828B190680860D6
:1053700090898880012070470020704766030020D4
:10538000084A012338B1012804D1137008689060DD
:1053900088889081704753700868C2F80200888836
:1053A000D080704766030020064910B1012802D062
:1053B00005E0487800E0087808B101207047002037
:1053C000704700006603002001490877704700001D
:1053D000520A00200148807870470000DC0000205D
:1053E0000148C07870470000DC00002070B50C4612
:1053F000054600F01FF918B1D0212720FFF70AF960
:105400000348012109F071F80248C0E90B5470BD4E
:10541000300A0020DC00002001490120487170475B
:10542000DC0000202DE9F84F5B4D0A9C2E78002E01
:105430006BD1002A69D0002B67D0002C65D005F114
:105440001406C5E90F0186E81C0000276F712F7153
:10545000AF706F70EF70AF81EF8100F03DF90646DD
:1054600000F034F9044605F091FF05F0E9FC94F9E9
:105470006E0006F00FF8E06906F0F2F8606906F0D9
:10548000E5F896F8330006F01BF905F13C0040689A
:1054900090F81A0208B105F0F9FE94F86B1001209B
:1054A00005F038FE002870D03C4805F09FFE2088AB
:1054B000FFF7C2FC68632088FFF7A8FC06F18802AA
:1054C000A86392E80C11DFF8D89089E80C11D6F89F
:1054D0009820C9F81920D6F89C10C9F81D1000F0C2
:1054E00033F90146208FBA4608F05CFDA18E814257
:1054F00000D20846A871A84694F86B10E08F96F881
:105500002370A58F082904D102E040F2451140E044
:10551000042108F047FD0FB9001D80B2854200D27A
:105520002846C5B288F8075088F8085096F8230036
:10553000D04690B1012789F81870D6E92012C9E940
:10554000041294F86B0008F032FC03462A46144912
:105550003846CDF8008005F0DFFB012000F054FB59
:1055600010480068032812D00B2810D00C480E22D7
:1055700000214A3007F0A8FA0948B18A4A30418030
:105580002188018096F833100171BDE8F88F40F250
:1055900002212720FFF73EF8DC0000200C5E00000F
:1055A000080A0020501500402DE9FC4188460746B6
:1055B00000F092F81A4C0546B807616A4E7816D585
:1055C000A06A30B36289D21C07F004FAA06A606254
:1055D000694601AAA06B08F039F8009807F0ECFFC3
:1055E000C8F8000031460122A06B07F09CFFF807C5
:1055F0000DD0D5E920011835401C41F10001C5E965
:105600001A0115F81809012808D001202876BDE8EC
:10561000FC8140F266412720FEF7FCFF0020F5E701
:10562000DC0000200248C089C0F3802070470000E1
:10563000DC0000200448007808B10C2070470349C2
:105640000020087770470000DC000020520A00208C
:105650000C4810B5017849B100F13C0100780228EE
:1056600008D040F21E212720FEF7D4FFBDE81040ED
:1056700000F0D8B94868D0F83002BDE8104005F015
:10568000BDBD0000DC000020F8B5002605464E70C8
:105690001D20094F0C4608702E720E223946201D1F
:1056A00007F098F9287A8DF80000009800909DF88E
:1056B00000000028F0D1F8BD600A0020024A93895A
:1056C0000343938152691047DC0000200148406881
:1056D0007047000018010020014840688030704782
:1056E00018010020014A002152691047DC00002007
:1056F00070B50546012918D8124CA1698847A0B198
:10570000207990B9E5B904F110000178C80605D4F4
:10571000E06A0078C00601D4012000E00020A26AFF
:105720002AB962891AB1C90601D4012070BDA189C4
:105730008A0703D5226AD278022A01D00843F4D11D
:10574000002070BDDC00002010B5FFF7BFFF04464D
:10575000FFF7C2FF0246417F1648252910D02629AF
:105760000ED0927F252A0BD020290DD021290BD0D5
:10577000232A0FD094F86A00042800D1082010BD15
:10578000406890F8CE120EE0232A03D0406890F8CB
:105790003E0105E0416891F83E0191F86310084030
:1057A00008F0FBFA014694F86A00BDE8104008F0E2
:1057B0000CBB0000180100202DE9FF5F8B468146DD
:1057C000FFF78AFF0026664C07468DF808600396AF
:1057D000019620783546022804D040F2EA4127207D
:1057E000FEF718FFA07B400606D44020FFF77AFFA3
:1057F000E08940F04000E08197F82300B9F1000F04
:105800003AD080B105F056FB05F030FB58B9606A1C
:10581000417841B10078397EC0F3C000884202D19E
:105820000120607097E0606A4178618121B1A06BCE
:1058300007F0E2FFA06200E0A562E08940F480701A
:10584000E081606AF97D0078C0F38000884207D06B
:1058500003A800F08BF9E08940F48060E08100E06B
:105860000126606A397E0078C0F3C00088420DD1FD
:1058700002A800F031F909E008B105F015FBA078A5
:10588000401CA070E08940F40070E081DFF8D0A0F7
:1058900097F822000AF13C0A90B1FFF717FF31494F
:1058A0000D76D7E91E23C1E9042390F86A0008F0B9
:1058B0007EFA0346FB222B492846009505F02CFA78
:1058C0004FF00008BBF1000F04D1A1780120FFF7D1
:1058D0000FFF20B105F0A6FE4FF0010802E0002006
:1058E00000F0D0F99DF8080018B101A90220FFF7D7
:1058F0005BFE1C48BA8A4A303EB11AB9C2880AB95E
:10590000028912B14289521C4281B9F1000F08D0BC
:10591000C188491CC1801248A5703C3001F05EF975
:1059200002E00189491C0181039840B107F044FE5F
:10593000DAF80410401C05720E2208F054FE01989B
:1059400030B1DAF8041005722A22019808F04BFEF3
:10595000B8F1000F01D000F065F8BDE8FF9F00002E
:10596000DC000020080A00202DE9F8438846814623
:10597000FFF7B2FE294D04462878012804D040F2F2
:1059800075412720FEF746FE207C0027012628B11E
:10599000277400210420FFF791FEA674296A087875
:1059A000C043800709D1A07D88BB0220FFF786FE97
:1059B000286A0078C043800729D0286A407810B14F
:1059C0000220A07500E0A67594F8230098B1FFF7B7
:1059D0007DFE13492D7A0E76D4E92023C1E90423F4
:1059E00090F86B0008F0E3F903462A460C4930466C
:1059F000009705F091F938EA090004D00021084623
:105A0000FFF776FE28B1BDE8F84300F00BB803209D
:105A1000D7E7BDE8F843002000F0F6B8DC0000202E
:105A2000080A002010B505F0EBFA05F009FA0D4C54
:105A3000E089FFF757FE0C48007F58B10A490E2253
:105A400001F10E0006F0C6FF0748242207491D3069
:105A500008F0DDFDE2692179607890470020207030
:105A600010BD0000DC000020520A00208956000012
:105A7000084810B50078022804D040F24D212720B4
:105A8000FEF7C8FD044901200873BDE81040FFF788
:105A9000C9BF0000DC000020520A002030B40446D8
:105AA0000C48007A0BB1001DC0B23AB9FF2805D1ED
:105AB00094F86B2094F86A309A4209D021B194F896
:105AC0006B1030BC05F0D2BDFF2094F86A10F8E7E7
:105AD00030BC7047DC0000202DE9F0410746FFF79D
